{
    "contractName": "XucreETF",
    "abi": [
        {
            "inputs": [
                {
                    "internalType": "address",
                    "name": "owner_xucre",
                    "type": "address"
                },
                {
                    "internalType": "address",
                    "name": "swapRouter_xucre",
                    "type": "address"
                },
                {
                    "internalType": "address",
                    "name": "tokenContract_xucre",
                    "type": "address"
                },
                {
                    "internalType": "uint24",
                    "name": "poolFee_xucre",
                    "type": "uint24"
                }
            ],
            "stateMutability": "nonpayable",
            "type": "constructor"
        },
        {
            "inputs": [],
            "name": "AccessControlBadConfirmation",
            "type": "error"
        },
        {
            "inputs": [
                {
                    "internalType": "address",
                    "name": "account",
                    "type": "address"
                },
                {
                    "internalType": "bytes32",
                    "name": "neededRole",
                    "type": "bytes32"
                }
            ],
            "name": "AccessControlUnauthorizedAccount",
            "type": "error"
        },
        {
            "inputs": [],
            "name": "EnforcedPause",
            "type": "error"
        },
        {
            "inputs": [],
            "name": "ExpectedPause",
            "type": "error"
        },
        {
            "anonymous": false,
            "inputs": [
                {
                    "indexed": false,
                    "internalType": "address",
                    "name": "account",
                    "type": "address"
                }
            ],
            "name": "Paused",
            "type": "event"
        },
        {
            "anonymous": false,
            "inputs": [
                {
                    "indexed": true,
                    "internalType": "bytes32",
                    "name": "role",
                    "type": "bytes32"
                },
                {
                    "indexed": true,
                    "internalType": "bytes32",
                    "name": "previousAdminRole",
                    "type": "bytes32"
                },
                {
                    "indexed": true,
                    "internalType": "bytes32",
                    "name": "newAdminRole",
                    "type": "bytes32"
                }
            ],
            "name": "RoleAdminChanged",
            "type": "event"
        },
        {
            "anonymous": false,
            "inputs": [
                {
                    "indexed": true,
                    "internalType": "bytes32",
                    "name": "role",
                    "type": "bytes32"
                },
                {
                    "indexed": true,
                    "internalType": "address",
                    "name": "account",
                    "type": "address"
                },
                {
                    "indexed": true,
                    "internalType": "address",
                    "name": "sender",
                    "type": "address"
                }
            ],
            "name": "RoleGranted",
            "type": "event"
        },
        {
            "anonymous": false,
            "inputs": [
                {
                    "indexed": true,
                    "internalType": "bytes32",
                    "name": "role",
                    "type": "bytes32"
                },
                {
                    "indexed": true,
                    "internalType": "address",
                    "name": "account",
                    "type": "address"
                },
                {
                    "indexed": true,
                    "internalType": "address",
                    "name": "sender",
                    "type": "address"
                }
            ],
            "name": "RoleRevoked",
            "type": "event"
        },
        {
            "anonymous": false,
            "inputs": [
                {
                    "indexed": false,
                    "internalType": "address",
                    "name": "account",
                    "type": "address"
                }
            ],
            "name": "Unpaused",
            "type": "event"
        },
        {
            "stateMutability": "payable",
            "type": "fallback"
        },
        {
            "inputs": [],
            "name": "BATCH_CALL_ROLE",
            "outputs": [
                {
                    "internalType": "bytes32",
                    "name": "",
                    "type": "bytes32"
                }
            ],
            "stateMutability": "view",
            "type": "function"
        },
        {
            "inputs": [],
            "name": "DEFAULT_ADMIN_ROLE",
            "outputs": [
                {
                    "internalType": "bytes32",
                    "name": "",
                    "type": "bytes32"
                }
            ],
            "stateMutability": "view",
            "type": "function"
        },
        {
            "inputs": [],
            "name": "PAUSER_ROLE",
            "outputs": [
                {
                    "internalType": "bytes32",
                    "name": "",
                    "type": "bytes32"
                }
            ],
            "stateMutability": "view",
            "type": "function"
        },
        {
            "inputs": [
                {
                    "internalType": "uint256",
                    "name": "amount_xucre",
                    "type": "uint256"
                },
                {
                    "internalType": "uint256",
                    "name": "bps_xucre",
                    "type": "uint256"
                }
            ],
            "name": "calculateFromPercent",
            "outputs": [
                {
                    "internalType": "uint256",
                    "name": "",
                    "type": "uint256"
                }
            ],
            "stateMutability": "pure",
            "type": "function"
        },
        {
            "inputs": [],
            "name": "feeToken",
            "outputs": [
                {
                    "internalType": "address",
                    "name": "",
                    "type": "address"
                }
            ],
            "stateMutability": "view",
            "type": "function"
        },
        {
            "inputs": [
                {
                    "internalType": "bytes32",
                    "name": "role",
                    "type": "bytes32"
                }
            ],
            "name": "getRoleAdmin",
            "outputs": [
                {
                    "internalType": "bytes32",
                    "name": "",
                    "type": "bytes32"
                }
            ],
            "stateMutability": "view",
            "type": "function"
        },
        {
            "inputs": [
                {
                    "internalType": "bytes32",
                    "name": "role",
                    "type": "bytes32"
                },
                {
                    "internalType": "address",
                    "name": "account",
                    "type": "address"
                }
            ],
            "name": "grantRole",
            "outputs": [],
            "stateMutability": "nonpayable",
            "type": "function"
        },
        {
            "inputs": [
                {
                    "internalType": "bytes32",
                    "name": "role",
                    "type": "bytes32"
                },
                {
                    "internalType": "address",
                    "name": "account",
                    "type": "address"
                }
            ],
            "name": "hasRole",
            "outputs": [
                {
                    "internalType": "bool",
                    "name": "",
                    "type": "bool"
                }
            ],
            "stateMutability": "view",
            "type": "function"
        },
        {
            "inputs": [],
            "name": "pause",
            "outputs": [],
            "stateMutability": "nonpayable",
            "type": "function"
        },
        {
            "inputs": [],
            "name": "paused",
            "outputs": [
                {
                    "internalType": "bool",
                    "name": "",
                    "type": "bool"
                }
            ],
            "stateMutability": "view",
            "type": "function"
        },
        {
            "inputs": [],
            "name": "poolFee",
            "outputs": [
                {
                    "internalType": "uint24",
                    "name": "",
                    "type": "uint24"
                }
            ],
            "stateMutability": "view",
            "type": "function"
        },
        {
            "inputs": [
                {
                    "internalType": "bytes32",
                    "name": "role",
                    "type": "bytes32"
                },
                {
                    "internalType": "address",
                    "name": "callerConfirmation",
                    "type": "address"
                }
            ],
            "name": "renounceRole",
            "outputs": [],
            "stateMutability": "nonpayable",
            "type": "function"
        },
        {
            "inputs": [
                {
                    "internalType": "bytes32",
                    "name": "role",
                    "type": "bytes32"
                },
                {
                    "internalType": "address",
                    "name": "account",
                    "type": "address"
                }
            ],
            "name": "revokeRole",
            "outputs": [],
            "stateMutability": "nonpayable",
            "type": "function"
        },
        {
            "inputs": [
                {
                    "internalType": "address",
                    "name": "to_xucre",
                    "type": "address"
                },
                {
                    "internalType": "address[]",
                    "name": "targetTokens_xucre",
                    "type": "address[]"
                },
                {
                    "internalType": "uint256[]",
                    "name": "inputAmounts_xucre",
                    "type": "uint256[]"
                },
                {
                    "internalType": "uint24[]",
                    "name": "poolFees_xucre",
                    "type": "uint24[]"
                },
                {
                    "internalType": "address",
                    "name": "paymentToken_xucre",
                    "type": "address"
                },
                {
                    "internalType": "uint256",
                    "name": "totalIn_xucre",
                    "type": "uint256"
                }
            ],
            "name": "spotExecution",
            "outputs": [],
            "stateMutability": "nonpayable",
            "type": "function"
        },
        {
            "inputs": [
                {
                    "internalType": "bytes4",
                    "name": "interfaceId",
                    "type": "bytes4"
                }
            ],
            "name": "supportsInterface",
            "outputs": [
                {
                    "internalType": "bool",
                    "name": "",
                    "type": "bool"
                }
            ],
            "stateMutability": "view",
            "type": "function"
        },
        {
            "inputs": [],
            "name": "unpause",
            "outputs": [],
            "stateMutability": "nonpayable",
            "type": "function"
        },
        {
            "inputs": [
                {
                    "internalType": "uint24",
                    "name": "xucre_fee",
                    "type": "uint24"
                },
                {
                    "internalType": "address",
                    "name": "xucre_tokenAddress",
                    "type": "address"
                }
            ],
            "name": "update",
            "outputs": [],
            "stateMutability": "nonpayable",
            "type": "function"
        },
        {
            "inputs": [
                {
                    "internalType": "address",
                    "name": "xucre_to",
                    "type": "address"
                }
            ],
            "name": "withdrawBalance",
            "outputs": [],
            "stateMutability": "nonpayable",
            "type": "function"
        },
        {
            "inputs": [
                {
                    "internalType": "address",
                    "name": "xucre_to",
                    "type": "address"
                },
                {
                    "internalType": "address",
                    "name": "xucre_tokenAddress",
                    "type": "address"
                }
            ],
            "name": "withdrawTokenBalance",
            "outputs": [],
            "stateMutability": "nonpayable",
            "type": "function"
        },
        {
            "inputs": [],
            "name": "xucre_swapRouter",
            "outputs": [
                {
                    "internalType": "contract ISwapRouter",
                    "name": "",
                    "type": "address"
                }
            ],
            "stateMutability": "view",
            "type": "function"
        },
        {
            "stateMutability": "payable",
            "type": "receive"
        }
    ],
    "bytecode": "60e0346200017957601f6200155d38819003918201601f19168301916001600160401b038311848410176200017d5780849260809460405283398101031262000179576200004d8162000191565b6200005b6020830162000191565b60606200006b6040850162000191565b9301519162ffffff831683036200017957620000f59060ff195f54165f557f65d7a28e3265b37a6474929f336521b332c1681b933f6cb9f3376673440d862a6080527f3fc7735c85a339a1b1daf5a92efc57ff14e2074379b26c7a2cf4384435ea308460a052620000dc81620001a6565b50620000eb8160805162000225565b5060a05162000225565b506001600160a01b0390811660c052600280546001600160b81b031916939091169290921760a09190911b62ffffff60a01b161790556040516112aa9081620002938239608051818181610194015281816103e30152610574015260a05181610682015260c0518181816102380152818161095101528181610a790152610bc20152f35b5f80fd5b634e487b7160e01b5f52604160045260245ffd5b51906001600160a01b03821682036200017957565b6001600160a01b03165f8181527fa6eef7e35abe7026729641147f7915573c7e97b47efa546f5f6e3230263bcb49602052604081205490919060ff16620002215781805260016020526040822081835260205260408220600160ff1982541617905533915f805160206200153d8339815191528180a4600190565b5090565b905f918083526001602052604083209160018060a01b03169182845260205260ff604084205416155f146200028d5780835260016020526040832082845260205260408320600160ff198254161790555f805160206200153d833981519152339380a4600190565b50509056fe6080806040526004361015610095575b50361561005b5760405162461bcd60e51b815260206004820152601760248201527f46756e6374696f6e20646f6573206e6f742065786973740000000000000000006044820152606490fd5b60405162461bcd60e51b8152602060048201526012602482015271115d1a195c881b9bdd081858d8d95c1d195960721b6044820152606490fd5b5f3560e01c90816301ffc9a714610df257508063089fe6aa14610dcd57806319569a14146106d2578063248a9ca3146106a5578063285877fb1461066b5780632f2ff15d1461062e57806336568abe146105e75780633f4ba83a1461055f57806345e77a22146104fe5780635c975abb146104dd578063647846a5146104b5578063756af45f146104595780638456cb59146103ce57806391d1485414610385578063a217fddf1461036b578063bb29578a14610267578063c08888ed14610223578063d547741f146101e4578063df321356146101bb5763e63ab1e91461017d575f61000f565b346101b7575f3660031901126101b75760206040517f00000000000000000000000000000000000000000000000000000000000000008152f35b5f80fd5b346101b75760403660031901126101b75760206101dc602435600435610eee565b604051908152f35b346101b75760403660031901126101b757610221600435610203610e5b565b90805f52600160205261021c600160405f200154611108565b6111a8565b005b346101b7575f3660031901126101b7576040517f00000000000000000000000000000000000000000000000000000000000000006001600160a01b03168152602090f35b346101b75760403660031901126101b757610280610e45565b610288610e5b565b906102916110b1565b6001600160a01b0381166102a157005b81815f6102ea6102f86102b683978497611044565b60405163a9059cbb60e01b602082019081526001600160a01b03909616602482015260448101919091529182906064820190565b03601f198101835282610ea1565b51925af161030461121d565b8161033c575b501561031257005b60405162461bcd60e51b815260206004820152600260248201526114d560f21b6044820152606490fd5b8051801592508215610351575b50508161030a565b610364925060208091830101910161125c565b8180610349565b346101b7575f3660031901126101b75760206040515f8152f35b346101b75760403660031901126101b75761039e610e5b565b6004355f52600160205260405f209060018060a01b03165f52602052602060ff60405f2054166040519015158152f35b346101b7575f3660031901126101b7576104077f0000000000000000000000000000000000000000000000000000000000000000611108565b5f5460ff81166104475760019060ff1916175f557f62e78cea01bee320cd4e420270b5ea74000d11b0c9f74754ebdbfc544b05a2586020604051338152a1005b60405163d93c066560e01b8152600490fd5b346101b75760203660031901126101b757610472610e45565b61047a6110b1565b6001600160a01b03168061048a57005b5f8080809347908282156104ac575bf1156104a157005b6040513d5f823e3d90fd5b506108fc610499565b346101b7575f3660031901126101b7576002546040516001600160a01b039091168152602090f35b346101b7575f3660031901126101b757602060ff5f54166040519015158152f35b346101b75760403660031901126101b75760043562ffffff811681036101b757610526610e5b565b9061052f6110b1565b600280546001600160b81b0319166001600160a01b039093169290921760a09190911b62ffffff60a01b16179055005b346101b7575f3660031901126101b7576105987f0000000000000000000000000000000000000000000000000000000000000000611108565b5f5460ff8116156105d55760ff19165f557f5db9ee0a495bf2e6ff9c91a7834c1ba4fdd244a5e8aa4e537bd38aeae4b073aa6020604051338152a1005b604051638dfc202b60e01b8152600490fd5b346101b75760403660031901126101b757610600610e5b565b336001600160a01b0382160361061c57610221906004356111a8565b60405163334bd91960e11b8152600490fd5b346101b75760403660031901126101b75761022160043561064d610e5b565b90805f526001602052610666600160405f200154611108565b61112a565b346101b7575f3660031901126101b75760206040517f00000000000000000000000000000000000000000000000000000000000000008152f35b346101b75760203660031901126101b7576004355f5260016020526020600160405f200154604051908152f35b346101b75760c03660031901126101b7576106eb610e45565b60243567ffffffffffffffff918282116101b757366023830112156101b757816004013561071881610ec3565b926107266040519485610ea1565b8184526024602085019260051b820101903682116101b757602401915b818310610dad57505050604435908382116101b757366023830112156101b75781600401359161077283610ec3565b926107806040519485610ea1565b8084526024602085019160051b830101913683116101b757602401905b828210610d9d5750505060649081359485116101b757366023860112156101b75784600401356107cc81610ec3565b956107da6040519788610ea1565b8187526024602088019260051b820101903682116101b757602401915b818310610d81575050506084356001600160a01b03811694908590036101b75760a43590805185518091149081610d76575b5015610d32575f96875b8651891015610874576108468988610f5b565b5181018091116108605761085a9098610f4d565b97610833565b634e487b7160e01b5f52601160045260245ffd5b61271088919795969703610ce3571580159590610cd4576108a28461089b60843584611044565b1015610f83565b6032840495848781031161086057610b54575b6002546040516bffffffffffffffffffffffff19608435606090811b82166020808501919091526001600160e81b0319604886901b16603485015293901b16603782015261094c919061090b81604b81016102ea565b6040519061091882610e71565b81523082820152426040820152886060820152600160808201526040518093819263c04b8d5960e01b835260048301610fc6565b03815f7f00000000000000000000000000000000000000000000000000000000000000006001600160a01b03165af180156104a157610b29575b505f5b835181101561022157610a7460206109ad6109a4848a610f5b565b518a8903610eee565b62ffffff6109bb8588610f5b565b511690610a2c6001600160a01b036109d3878b610f5b565b511692610a1e6040519485926084358885019192602b936bffffffffffffffffffffffff19809360601b16845262ffffff60e81b9060e81b16601484015260601b1660178201520190565b03601f198101845283610ea1565b60405191610a3983610e71565b825260018060a01b038616838301524260408301526060820152600160808201526040518093819263c04b8d5960e01b835260048301610fc6565b03815f7f00000000000000000000000000000000000000000000000000000000000000006001600160a01b03165af19081156104a1575f91610af7575b5015610ac557610ac090610f4d565b610989565b60405162461bcd60e51b815260206004820152600b60248201526a14ddd85c0819985a5b195960aa1b60448201528890fd5b90506020813d602011610b21575b81610b1260209383610ea1565b810103126101b7575189610ab1565b3d9150610b05565b602090813d8311610b4d575b610b3f8183610ea1565b810103126101b75787610986565b503d610b35565b6040516323b872dd60e01b602082019081526001600160a01b03831660248301523060448301528882018690528882525f91829190610b9281610e71565b5190826084355af1610ba261121d565b81610ca5575b5015610c7b5760405163095ea7b360e01b602082019081527f00000000000000000000000000000000000000000000000000000000000000006001600160a01b03166024830152604482018690525f91829190610c0881606481016102ea565b5190826084355af1610c1861121d565b81610c4c575b506108b55760405162461bcd60e51b8152602060048201526002602482015261534160f01b60448201528790fd5b8051801592508215610c61575b505088610c1e565b610c74925060208091830101910161125c565b8880610c59565b60405162461bcd60e51b815260206004820152600360248201526229aa2360e91b60448201528790fd5b8051801592508215610cba575b505088610ba8565b610ccd925060208091830101910161125c565b8880610cb2565b610cde8415610f83565b6108a2565b60405162461bcd60e51b815260206004820152602260248201527f496e70757420616d6f756e7473206d7573742061646420757020746f20313030604482015261030360f41b81890152608490fd5b60405162461bcd60e51b815260206004820152601860248201527f496e76616c696420696e70757420706172616d6574657273000000000000000060448201528490fd5b905087511488610829565b823562ffffff811681036101b7578152602092830192016107f7565b813581526020918201910161079d565b82356001600160a01b03811681036101b757815260209283019201610743565b346101b7575f3660031901126101b757602062ffffff60025460a01c16604051908152f35b346101b75760203660031901126101b7576004359063ffffffff60e01b82168092036101b757602091637965db0b60e01b8114908115610e34575b5015158152f35b6301ffc9a760e01b14905083610e2d565b600435906001600160a01b03821682036101b757565b602435906001600160a01b03821682036101b757565b60a0810190811067ffffffffffffffff821117610e8d57604052565b634e487b7160e01b5f52604160045260245ffd5b90601f8019910116810190811067ffffffffffffffff821117610e8d57604052565b67ffffffffffffffff8111610e8d5760051b60200190565b8181029291811591840414171561086057565b6127109182610efd8284610edb565b10610f0f57610f0b91610edb565b0490565b60405162461bcd60e51b8152602060048201526016602482015275496e76616c696420616d6f756e7420656e747269657360501b6044820152606490fd5b5f1981146108605760010190565b8051821015610f6f5760209160051b010190565b634e487b7160e01b5f52603260045260245ffd5b15610f8a57565b60405162461bcd60e51b8152602060048201526014602482015273496e73756666696369656e742062616c616e636560601b6044820152606490fd5b6020808252825160a082840152805160c08401819052919493905f5b83811061103057505060809060e094955f86858701015260018060a01b039082015116604085015260408101516060850152606081015182850152015160a0830152601f8019910116010190565b81810187015185820160e001528601610fe2565b6040516370a0823160e01b81526001600160a01b0391821660048201529160209183916024918391165afa9081156104a1575f91611080575090565b906020823d82116110a9575b8161109960209383610ea1565b810103126110a657505190565b80fd5b3d915061108c565b335f9081527fa6eef7e35abe7026729641147f7915573c7e97b47efa546f5f6e3230263bcb49602052604081205460ff16156110ea5750565b6044906040519063e2517d3f60e01b82523360048301526024820152fd5b805f52600160205260405f20335f5260205260ff60405f205416156110ea5750565b905f918083526001602052604083209160018060a01b03169182845260205260ff604084205416155f146111a35780835260016020526040832082845260205260408320600160ff198254161790557f2f8788117e7eff1d82e926ec794901d17c78024a50270940304540a733656f0d339380a4600190565b505090565b905f918083526001602052604083209160018060a01b03169182845260205260ff6040842054165f146111a3578083526001602052604083208284526020526040832060ff1981541690557ff6391f5c32d9c69d2a47ea670b442974b53935d1edc7fd64eb21e047a839171b339380a4600190565b3d15611257573d9067ffffffffffffffff8211610e8d576040519161124c601f8201601f191660200184610ea1565b82523d5f602084013e565b606090565b908160209103126101b7575180151581036101b7579056fea26469706673582212207adf088abd84ca09c2e09acbbb8adc96dce971b616aaffd5791e79eb21098c0364736f6c634300081400332f8788117e7eff1d82e926ec794901d17c78024a50270940304540a733656f0d",
    "sourcePath": "/Users/jp/Desktop/Repos/xucre/xucre-contracts/contracts/XucreETF.sol",
    "compiler": {
        "name": "solc",
        "version": "0.8.20+commit.a1b79de6"
    },
    "functionHashes": {
        "BATCH_CALL_ROLE()": "285877fb",
        "DEFAULT_ADMIN_ROLE()": "a217fddf",
        "PAUSER_ROLE()": "e63ab1e9",
        "calculateFromPercent(uint256,uint256)": "df321356",
        "feeToken()": "647846a5",
        "getRoleAdmin(bytes32)": "248a9ca3",
        "grantRole(bytes32,address)": "2f2ff15d",
        "hasRole(bytes32,address)": "91d14854",
        "pause()": "8456cb59",
        "paused()": "5c975abb",
        "poolFee()": "089fe6aa",
        "renounceRole(bytes32,address)": "36568abe",
        "revokeRole(bytes32,address)": "d547741f",
        "spotExecution(address,address[],uint256[],uint24[],address,uint256)": "19569a14",
        "supportsInterface(bytes4)": "01ffc9a7",
        "unpause()": "3f4ba83a",
        "update(uint24,address)": "45e77a22",
        "withdrawBalance(address)": "756af45f",
        "withdrawTokenBalance(address,address)": "bb29578a",
        "xucre_swapRouter()": "c08888ed"
    },
    "gasEstimates": {
        "creation": {
            "codeDepositCost": "955600",
            "executionCost": "infinite",
            "totalCost": "infinite"
        },
        "external": {
            "": "627",
            "BATCH_CALL_ROLE()": "infinite",
            "DEFAULT_ADMIN_ROLE()": "460",
            "PAUSER_ROLE()": "infinite",
            "calculateFromPercent(uint256,uint256)": "infinite",
            "feeToken()": "2500",
            "getRoleAdmin(bytes32)": "2393",
            "grantRole(bytes32,address)": "33318",
            "hasRole(bytes32,address)": "2771",
            "pause()": "infinite",
            "paused()": "2465",
            "poolFee()": "2290",
            "renounceRole(bytes32,address)": "28928",
            "revokeRole(bytes32,address)": "33573",
            "spotExecution(address,address[],uint256[],uint24[],address,uint256)": "infinite",
            "supportsInterface(bytes4)": "270",
            "unpause()": "infinite",
            "update(uint24,address)": "26930",
            "withdrawBalance(address)": "infinite",
            "withdrawTokenBalance(address,address)": "infinite",
            "xucre_swapRouter()": "infinite"
        },
        "internal": {
            "checkBalance(address,address)": "infinite",
            "performSwapBatch(address,address[] memory,uint256[] memory,uint24[] memory,uint256,address,bool)": "infinite",
            "swap(address,uint256,uint24,address,address)": "infinite"
        }
    }
}