{
    "contractName": "XucreETF",
    "abi": [
        {
            "inputs": [
                {
                    "internalType": "address",
                    "name": "owner_xucre",
                    "type": "address"
                },
                {
                    "internalType": "address",
                    "name": "swapRouter_xucre",
                    "type": "address"
                },
                {
                    "internalType": "address",
                    "name": "permit_xucre",
                    "type": "address"
                },
                {
                    "internalType": "address",
                    "name": "tokenContract_xucre",
                    "type": "address"
                },
                {
                    "internalType": "uint24",
                    "name": "poolFee_xucre",
                    "type": "uint24"
                }
            ],
            "stateMutability": "nonpayable",
            "type": "constructor"
        },
        {
            "inputs": [],
            "name": "AccessControlBadConfirmation",
            "type": "error"
        },
        {
            "inputs": [
                {
                    "internalType": "address",
                    "name": "account",
                    "type": "address"
                },
                {
                    "internalType": "bytes32",
                    "name": "neededRole",
                    "type": "bytes32"
                }
            ],
            "name": "AccessControlUnauthorizedAccount",
            "type": "error"
        },
        {
            "inputs": [],
            "name": "EnforcedPause",
            "type": "error"
        },
        {
            "inputs": [],
            "name": "ExpectedPause",
            "type": "error"
        },
        {
            "anonymous": false,
            "inputs": [
                {
                    "indexed": false,
                    "internalType": "address",
                    "name": "account",
                    "type": "address"
                }
            ],
            "name": "Paused",
            "type": "event"
        },
        {
            "anonymous": false,
            "inputs": [
                {
                    "indexed": true,
                    "internalType": "bytes32",
                    "name": "role",
                    "type": "bytes32"
                },
                {
                    "indexed": true,
                    "internalType": "bytes32",
                    "name": "previousAdminRole",
                    "type": "bytes32"
                },
                {
                    "indexed": true,
                    "internalType": "bytes32",
                    "name": "newAdminRole",
                    "type": "bytes32"
                }
            ],
            "name": "RoleAdminChanged",
            "type": "event"
        },
        {
            "anonymous": false,
            "inputs": [
                {
                    "indexed": true,
                    "internalType": "bytes32",
                    "name": "role",
                    "type": "bytes32"
                },
                {
                    "indexed": true,
                    "internalType": "address",
                    "name": "account",
                    "type": "address"
                },
                {
                    "indexed": true,
                    "internalType": "address",
                    "name": "sender",
                    "type": "address"
                }
            ],
            "name": "RoleGranted",
            "type": "event"
        },
        {
            "anonymous": false,
            "inputs": [
                {
                    "indexed": true,
                    "internalType": "bytes32",
                    "name": "role",
                    "type": "bytes32"
                },
                {
                    "indexed": true,
                    "internalType": "address",
                    "name": "account",
                    "type": "address"
                },
                {
                    "indexed": true,
                    "internalType": "address",
                    "name": "sender",
                    "type": "address"
                }
            ],
            "name": "RoleRevoked",
            "type": "event"
        },
        {
            "anonymous": false,
            "inputs": [
                {
                    "indexed": false,
                    "internalType": "address",
                    "name": "account",
                    "type": "address"
                }
            ],
            "name": "Unpaused",
            "type": "event"
        },
        {
            "stateMutability": "payable",
            "type": "fallback"
        },
        {
            "inputs": [],
            "name": "BATCH_CALL_ROLE",
            "outputs": [
                {
                    "internalType": "bytes32",
                    "name": "",
                    "type": "bytes32"
                }
            ],
            "stateMutability": "view",
            "type": "function"
        },
        {
            "inputs": [],
            "name": "DEFAULT_ADMIN_ROLE",
            "outputs": [
                {
                    "internalType": "bytes32",
                    "name": "",
                    "type": "bytes32"
                }
            ],
            "stateMutability": "view",
            "type": "function"
        },
        {
            "inputs": [],
            "name": "PAUSER_ROLE",
            "outputs": [
                {
                    "internalType": "bytes32",
                    "name": "",
                    "type": "bytes32"
                }
            ],
            "stateMutability": "view",
            "type": "function"
        },
        {
            "inputs": [
                {
                    "internalType": "uint256",
                    "name": "amount_xucre",
                    "type": "uint256"
                },
                {
                    "internalType": "uint256",
                    "name": "bps_xucre",
                    "type": "uint256"
                }
            ],
            "name": "calculateFromPercent",
            "outputs": [
                {
                    "internalType": "uint256",
                    "name": "",
                    "type": "uint256"
                }
            ],
            "stateMutability": "pure",
            "type": "function"
        },
        {
            "inputs": [],
            "name": "feeToken",
            "outputs": [
                {
                    "internalType": "address",
                    "name": "",
                    "type": "address"
                }
            ],
            "stateMutability": "view",
            "type": "function"
        },
        {
            "inputs": [
                {
                    "internalType": "bytes32",
                    "name": "role",
                    "type": "bytes32"
                }
            ],
            "name": "getRoleAdmin",
            "outputs": [
                {
                    "internalType": "bytes32",
                    "name": "",
                    "type": "bytes32"
                }
            ],
            "stateMutability": "view",
            "type": "function"
        },
        {
            "inputs": [
                {
                    "internalType": "bytes32",
                    "name": "role",
                    "type": "bytes32"
                },
                {
                    "internalType": "address",
                    "name": "account",
                    "type": "address"
                }
            ],
            "name": "grantRole",
            "outputs": [],
            "stateMutability": "nonpayable",
            "type": "function"
        },
        {
            "inputs": [
                {
                    "internalType": "bytes32",
                    "name": "role",
                    "type": "bytes32"
                },
                {
                    "internalType": "address",
                    "name": "account",
                    "type": "address"
                }
            ],
            "name": "hasRole",
            "outputs": [
                {
                    "internalType": "bool",
                    "name": "",
                    "type": "bool"
                }
            ],
            "stateMutability": "view",
            "type": "function"
        },
        {
            "inputs": [],
            "name": "pause",
            "outputs": [],
            "stateMutability": "nonpayable",
            "type": "function"
        },
        {
            "inputs": [],
            "name": "paused",
            "outputs": [
                {
                    "internalType": "bool",
                    "name": "",
                    "type": "bool"
                }
            ],
            "stateMutability": "view",
            "type": "function"
        },
        {
            "inputs": [],
            "name": "permit",
            "outputs": [
                {
                    "internalType": "contract IPermit2",
                    "name": "",
                    "type": "address"
                }
            ],
            "stateMutability": "view",
            "type": "function"
        },
        {
            "inputs": [],
            "name": "poolFee",
            "outputs": [
                {
                    "internalType": "uint24",
                    "name": "",
                    "type": "uint24"
                }
            ],
            "stateMutability": "view",
            "type": "function"
        },
        {
            "inputs": [
                {
                    "internalType": "bytes32",
                    "name": "role",
                    "type": "bytes32"
                },
                {
                    "internalType": "address",
                    "name": "callerConfirmation",
                    "type": "address"
                }
            ],
            "name": "renounceRole",
            "outputs": [],
            "stateMutability": "nonpayable",
            "type": "function"
        },
        {
            "inputs": [
                {
                    "internalType": "bytes32",
                    "name": "role",
                    "type": "bytes32"
                },
                {
                    "internalType": "address",
                    "name": "account",
                    "type": "address"
                }
            ],
            "name": "revokeRole",
            "outputs": [],
            "stateMutability": "nonpayable",
            "type": "function"
        },
        {
            "inputs": [],
            "name": "router",
            "outputs": [
                {
                    "internalType": "contract IUniversalRouter",
                    "name": "",
                    "type": "address"
                }
            ],
            "stateMutability": "view",
            "type": "function"
        },
        {
            "inputs": [
                {
                    "internalType": "address",
                    "name": "to_xucre",
                    "type": "address"
                },
                {
                    "internalType": "address[]",
                    "name": "targetTokens_xucre",
                    "type": "address[]"
                },
                {
                    "internalType": "uint256[]",
                    "name": "inputAmounts_xucre",
                    "type": "uint256[]"
                },
                {
                    "internalType": "uint24[]",
                    "name": "poolFees_xucre",
                    "type": "uint24[]"
                },
                {
                    "internalType": "address",
                    "name": "paymentToken_xucre",
                    "type": "address"
                },
                {
                    "internalType": "uint256",
                    "name": "totalIn_xucre",
                    "type": "uint256"
                }
            ],
            "name": "spotExecution",
            "outputs": [],
            "stateMutability": "nonpayable",
            "type": "function"
        },
        {
            "inputs": [
                {
                    "internalType": "bytes4",
                    "name": "interfaceId",
                    "type": "bytes4"
                }
            ],
            "name": "supportsInterface",
            "outputs": [
                {
                    "internalType": "bool",
                    "name": "",
                    "type": "bool"
                }
            ],
            "stateMutability": "view",
            "type": "function"
        },
        {
            "inputs": [],
            "name": "unpause",
            "outputs": [],
            "stateMutability": "nonpayable",
            "type": "function"
        },
        {
            "inputs": [
                {
                    "internalType": "uint24",
                    "name": "xucre_fee",
                    "type": "uint24"
                },
                {
                    "internalType": "address",
                    "name": "xucre_tokenAddress",
                    "type": "address"
                }
            ],
            "name": "update",
            "outputs": [],
            "stateMutability": "nonpayable",
            "type": "function"
        },
        {
            "inputs": [
                {
                    "internalType": "address",
                    "name": "xucre_to",
                    "type": "address"
                }
            ],
            "name": "withdrawBalance",
            "outputs": [],
            "stateMutability": "nonpayable",
            "type": "function"
        },
        {
            "inputs": [
                {
                    "internalType": "address",
                    "name": "xucre_to",
                    "type": "address"
                },
                {
                    "internalType": "address",
                    "name": "xucre_tokenAddress",
                    "type": "address"
                }
            ],
            "name": "withdrawTokenBalance",
            "outputs": [],
            "stateMutability": "nonpayable",
            "type": "function"
        },
        {
            "stateMutability": "payable",
            "type": "receive"
        }
    ],
    "bytecode": "61012034620001d357601f620018e638819003918201601f19168301916001600160401b03831184841017620001d75780849260a094604052833981010312620001d3576200004e81620001eb565b906200005d60208201620001eb565b916200006c60408301620001eb565b9260806200007d60608501620001eb565b9301519162ffffff83168303620001d3575f805460ff1916815560c0527f65d7a28e3265b37a6474929f336521b332c1681b933f6cb9f3376673440d862a6080527f3fc7735c85a339a1b1daf5a92efc57ff14e2074379b26c7a2cf4384435ea308460a0526200010b90620000f28162000200565b50620001018160805162000270565b5060a05162000270565b506001600160a01b0390811660e052928316610100908152600280546001600160b81b031916939094169290921760a09190911b62ffffff60a01b16179091556040516115c89182620002de83396080518281816101e3015281816103f401526105d8015260a051826106ea015260c0518281816109620152610b17015260e05182818161019901528181610a1201528181610a6d01528181610bbf01528181610c1a0152610df501525181818161052c01528181610d4801528181610da40152610e410152f35b5f80fd5b634e487b7160e01b5f52604160045260245ffd5b51906001600160a01b0382168203620001d357565b6001600160a01b03165f8181525f80516020620018c6833981519152602052604090205460ff166200026b575f8181525f80516020620018c683398151915260205260408120805460ff191660011790553391905f80516020620018a68339815191528180a4600190565b505f90565b90815f52600160205260405f209060018060a01b031690815f5260205260ff60405f205416155f14620002d757815f52600160205260405f20815f5260205260405f20600160ff1982541617905533915f80516020620018a68339815191525f80a4600190565b50505f9056fe6080806040526004361015610095575b50361561005b5760405162461bcd60e51b815260206004820152601760248201527f46756e6374696f6e20646f6573206e6f742065786973740000000000000000006044820152606490fd5b60405162461bcd60e51b8152602060048201526012602482015271115d1a195c881b9bdd081858d8d95c1d195960721b6044820152606490fd5b5f905f3560e01c90816301ffc9a71461105157508063089fe6aa1461102c57806319569a1414610739578063248a9ca31461070d578063285877fb146106d25780632f2ff15d1461069457806336568abe1461064c5780633f4ba83a146105c257806345e77a221461055b5780635777e93d146105165780635c975abb146104f4578063647846a5146104cb578063756af45f1461046b5780638456cb59146103de57806391d1485414610394578063a217fddf14610378578063bb29578a14610272578063d547741f14610230578063df32135614610206578063e63ab1e9146101cb5763f887ea400361000f57346101c857806003193601126101c8576040517f00000000000000000000000000000000000000000000000000000000000000006001600160a01b03168152602090f35b80fd5b50346101c857806003193601126101c85760206040517f00000000000000000000000000000000000000000000000000000000000000008152f35b50346101c85760403660031901126101c857602061022860243560043561114d565b604051908152f35b50346101c85760403660031901126101c85761026e6004356102506110ba565b90808452600160205261026960016040862001546113b6565b611474565b5080f35b50346101c85760403660031901126101c8578061028d6110a4565b6102956110ba565b61029d611360565b6001600160a01b0382166102af575050f35b81836102f66103046102c28584976114e8565b60405163a9059cbb60e01b602082019081526001600160a01b03909616602482015260448101919091529182906064820190565b03601f198101835282611100565b51925af1610310611553565b81610349575b501561031f5780f35b60405162461bcd60e51b815260206004820152600260248201526114d560f21b6044820152606490fd5b805180159250821561035e575b50505f610316565b6103719250602080918301019101611224565b5f80610356565b50346101c857806003193601126101c857602090604051908152f35b50346101c85760403660031901126101c85760406103b06110ba565b9160043581526001602052209060018060a01b03165f52602052602060ff60405f2054166040519015158152f35b50346101c857806003193601126101c8576104187f00000000000000000000000000000000000000000000000000000000000000006113b6565b805460ff81166104595760019060ff19161781557f62e78cea01bee320cd4e420270b5ea74000d11b0c9f74754ebdbfc544b05a2586020604051338152a180f35b60405163d93c066560e01b8152600490fd5b50346101c85760203660031901126101c857806104866110a4565b61048e611360565b6001600160a01b03168061049f5750f35b8180809247908282156104c2575bf1156104b65780f35b604051903d90823e3d90fd5b506108fc6104ad565b50346101c857806003193601126101c8576002546040516001600160a01b039091168152602090f35b50346101c857806003193601126101c85760ff60209154166040519015158152f35b50346101c857806003193601126101c8576040517f00000000000000000000000000000000000000000000000000000000000000006001600160a01b03168152602090f35b50346101c85760403660031901126101c85760043562ffffff811681036105be576105846110ba565b9061058d611360565b600280546001600160b81b0319166001600160a01b039093169290921760a09190911b62ffffff60a01b1617905580f35b5f80fd5b50346101c857806003193601126101c8576105fc7f00000000000000000000000000000000000000000000000000000000000000006113b6565b805460ff81161561063a5760ff191681557f5db9ee0a495bf2e6ff9c91a7834c1ba4fdd244a5e8aa4e537bd38aeae4b073aa6020604051338152a180f35b604051638dfc202b60e01b8152600490fd5b50346101c85760403660031901126101c8576106666110ba565b336001600160a01b038216036106825761026e90600435611474565b60405163334bd91960e11b8152600490fd5b50346101c85760403660031901126101c85761026e6004356106b46110ba565b9080845260016020526106cd60016040862001546113b6565b6113f6565b50346101c857806003193601126101c85760206040517f00000000000000000000000000000000000000000000000000000000000000008152f35b50346101c85760203660031901126101c857600160406020926004358152828452200154604051908152f35b50346105be5760c03660031901126105be576107536110a4565b906024359067ffffffffffffffff82116105be57366023830112156105be57816004013561078081611122565b9261078e6040519485611100565b8184526024602085019260051b820101903682116105be57602401915b81831061100c575050506044359067ffffffffffffffff82116105be57366023830112156105be578160040135916107e283611122565b926107f06040519485611100565b8084526024602085019160051b830101913683116105be57602401905b828210610ffc575050506064359267ffffffffffffffff84116105be57366023850112156105be57836004013561084381611122565b946108516040519687611100565b8186526024602087019260051b820101903682116105be57602401915b818310610fe0575050506084356001600160a01b03811690036105be5761012c420142116108d657805183518091149081610fd5575b5015610f90575f94855b84518710156108ea576108c187866111cd565b5181018091116108d6576001909601956108ae565b634e487b7160e01b5f52601160045260245ffd5b612710869195949503610f40576084356001600160a01b031615610f2f5761092160a43561091a608435856114e8565b10156111e1565b60a435603281048103116108d6576084356001600160a01b0316610cc4575b60405161094c816110e4565b6001815260203681830137805115610cb05785907f0000000000000000000000000000000000000000000000000000000000000000821a602082015361099061123c565b600254604051608435606090811b6bffffffffffffffffffffffff199081166020840152604884901b6001600160e81b031916603484015292901b90911660378201526102f6906109fc906109e681604b810185565b604051928391603260a4350430602085016112ae565b610a05826111ac565b52610a0f816111ac565b507f00000000000000000000000000000000000000000000000000000000000000006001600160a01b03163b15610c7c57604051630d64d59360e21b815291839183918291610a68914261012c019190600485016112e4565b03815f7f00000000000000000000000000000000000000000000000000000000000000006001600160a01b03165af18015610c7157610c98575b505b8351811015610c9457610aca610aba82876111cd565b51603260a4350460a4350361114d565b62ffffff610ad883856111cd565b51166001600160a01b03610aec84886111cd565b511660405192610afb846110e4565b6001845260203681860137835115610c805790610ba98a9493927f0000000000000000000000000000000000000000000000000000000000000000861a6020860153610b96610b4861123c565b604051608435606090811b6bffffffffffffffffffffffff19908116602084015260e89890981b6001600160e81b03191660348301529590951b9095166037850152602b8452604b84611100565b6102f66040519384928b602085016112ae565b610bb2826111ac565b52610bbc816111ac565b507f00000000000000000000000000000000000000000000000000000000000000006001600160a01b03163b15610c7c57604051630d64d59360e21b815291839183918291610c15914261012c019190600485016112e4565b03815f7f00000000000000000000000000000000000000000000000000000000000000006001600160a01b03165af18015610c7157610c59575b5050600101610aa4565b610c62906110d0565b610c6d578587610c4f565b8580fd5b6040513d84823e3d90fd5b8280fd5b634e487b7160e01b8a52603260045260248afd5b8580f35b610ca1906110d0565b610cac578486610aa2565b8480fd5b634e487b7160e01b86526032600452602486fd5b6040516323b872dd60e01b60208201526001600160a01b038316602482015230604482015260a435606480830191909152815267ffffffffffffffff60a0820190811190821117610f1b575f8160a0829301604052602081519101826084355af1610d2d611553565b81610eec575b5015610ec15760405163095ea7b360e01b81527f00000000000000000000000000000000000000000000000000000000000000006001600160a01b0316600482015260a4356024820152602081806044810103815f6084356001600160a01b03165af18015610e8757610e92575b507f00000000000000000000000000000000000000000000000000000000000000006001600160a01b03163b156105be576040516387517c4560e01b8152608480356001600160a01b0390811660048401527f00000000000000000000000000000000000000000000000000000000000000008116602484015260a435811660448401524261012c0165ffffffffffff1660648401525f918391829084907f0000000000000000000000000000000000000000000000000000000000000000165af18015610e8757610e74575b50610940565b610e7f9195506110d0565b5f9385610e6e565b6040513d5f823e3d90fd5b610eb39060203d602011610eba575b610eab8183611100565b810190611224565b5085610da1565b503d610ea1565b60405162461bcd60e51b815260206004820152600360248201526229aa2360e91b6044820152606490fd5b8051801592508215610f01575b505086610d33565b610f149250602080918301019101611224565b8680610ef9565b634e487b7160e01b5f52604160045260245ffd5b610f3b60a435156111e1565b610921565b60405162461bcd60e51b815260206004820152602260248201527f496e70757420616d6f756e7473206d7573742061646420757020746f20313030604482015261030360f41b6064820152608490fd5b60405162461bcd60e51b815260206004820152601860248201527f496e76616c696420696e70757420706172616d657465727300000000000000006044820152606490fd5b90508451145f6108a4565b823562ffffff811681036105be5781526020928301920161086e565b813581526020918201910161080d565b82356001600160a01b03811681036105be578152602092830192016107ab565b346105be575f3660031901126105be57602062ffffff60025460a01c16604051908152f35b346105be5760203660031901126105be576004359063ffffffff60e01b82168092036105be57602091637965db0b60e01b8114908115611093575b5015158152f35b6301ffc9a760e01b1490508361108c565b600435906001600160a01b03821682036105be57565b602435906001600160a01b03821682036105be57565b67ffffffffffffffff8111610f1b57604052565b6040810190811067ffffffffffffffff821117610f1b57604052565b90601f8019910116810190811067ffffffffffffffff821117610f1b57604052565b67ffffffffffffffff8111610f1b5760051b60200190565b818102929181159184041417156108d657565b612710918261115c828461113a565b1061116e5761116a9161113a565b0490565b60405162461bcd60e51b8152602060048201526016602482015275496e76616c696420616d6f756e7420656e747269657360501b6044820152606490fd5b8051156111b95760200190565b634e487b7160e01b5f52603260045260245ffd5b80518210156111b95760209160051b010190565b156111e857565b60405162461bcd60e51b8152602060048201526014602482015273496e73756666696369656e742062616c616e636560601b6044820152606490fd5b908160209103126105be575180151581036105be5790565b604051611248816110e4565b60018152805f5b60208082101561126a5790606060209282850101520161124f565b50505090565b91908251928382525f5b84811061129a575050825f602080949584010152601f8019910116010190565b60208183018101518483018201520161127a565b93926112df90600193608093858060a01b03168752602087015283604087015260a0606087015260a0860190611270565b930152565b939291906112fa90606086526060860190611270565b906020858303818701528151908184528084019381808460051b8301019401945f915b84831061133257505050505060409150930152565b9091929394848061134f600193601f198682030187528a51611270565b98019301930191959493929061131d565b335f9081527fa6eef7e35abe7026729641147f7915573c7e97b47efa546f5f6e3230263bcb49602052604090205460ff161561139857565b60405163e2517d3f60e01b81523360048201525f6024820152604490fd5b805f52600160205260405f20335f5260205260ff60405f205416156113d85750565b6044906040519063e2517d3f60e01b82523360048301526024820152fd5b90815f52600160205260405f209060018060a01b031690815f5260205260ff60405f205416155f1461146e57815f52600160205260405f20815f5260205260405f20600160ff1982541617905533917f2f8788117e7eff1d82e926ec794901d17c78024a50270940304540a733656f0d5f80a4600190565b50505f90565b90815f52600160205260405f209060018060a01b031690815f5260205260ff60405f2054165f1461146e57815f52600160205260405f20815f5260205260405f2060ff19815416905533917ff6391f5c32d9c69d2a47ea670b442974b53935d1edc7fd64eb21e047a839171b5f80a4600190565b6040516370a0823160e01b81526001600160a01b0391821660048201529160209183916024918391165afa908115610e87575f91611524575090565b90506020813d60201161154b575b8161153f60209383611100565b810103126105be575190565b3d9150611532565b3d1561158d573d9067ffffffffffffffff8211610f1b5760405191611582601f8201601f191660200184611100565b82523d5f602084013e565b60609056fea264697066735822122080a44bcfe2d177965fc7d746856d815a5147ccbd0a6f56c3344f6eee98fcff6064736f6c634300081800332f8788117e7eff1d82e926ec794901d17c78024a50270940304540a733656f0da6eef7e35abe7026729641147f7915573c7e97b47efa546f5f6e3230263bcb49",
    "sourcePath": "/Users/jp/Desktop/Repos/xucre/xucre-contracts/contracts/XucreETF.sol",
    "compiler": {
        "name": "solc",
        "version": "0.8.24+commit.e11b9ed9"
    },
    "functionHashes": {
        "BATCH_CALL_ROLE()": "285877fb",
        "DEFAULT_ADMIN_ROLE()": "a217fddf",
        "PAUSER_ROLE()": "e63ab1e9",
        "calculateFromPercent(uint256,uint256)": "df321356",
        "feeToken()": "647846a5",
        "getRoleAdmin(bytes32)": "248a9ca3",
        "grantRole(bytes32,address)": "2f2ff15d",
        "hasRole(bytes32,address)": "91d14854",
        "pause()": "8456cb59",
        "paused()": "5c975abb",
        "permit()": "5777e93d",
        "poolFee()": "089fe6aa",
        "renounceRole(bytes32,address)": "36568abe",
        "revokeRole(bytes32,address)": "d547741f",
        "router()": "f887ea40",
        "spotExecution(address,address[],uint256[],uint24[],address,uint256)": "19569a14",
        "supportsInterface(bytes4)": "01ffc9a7",
        "unpause()": "3f4ba83a",
        "update(uint24,address)": "45e77a22",
        "withdrawBalance(address)": "756af45f",
        "withdrawTokenBalance(address,address)": "bb29578a"
    },
    "gasEstimates": {
        "creation": {
            "codeDepositCost": "1115200",
            "executionCost": "infinite",
            "totalCost": "infinite"
        },
        "external": {
            "": "641",
            "BATCH_CALL_ROLE()": "infinite",
            "DEFAULT_ADMIN_ROLE()": "494",
            "PAUSER_ROLE()": "infinite",
            "calculateFromPercent(uint256,uint256)": "infinite",
            "feeToken()": "2530",
            "getRoleAdmin(bytes32)": "2402",
            "grantRole(bytes32,address)": "33321",
            "hasRole(bytes32,address)": "2802",
            "pause()": "infinite",
            "paused()": "2496",
            "permit()": "infinite",
            "poolFee()": "2295",
            "renounceRole(bytes32,address)": "28929",
            "revokeRole(bytes32,address)": "33576",
            "router()": "infinite",
            "spotExecution(address,address[],uint256[],uint24[],address,uint256)": "infinite",
            "supportsInterface(bytes4)": "275",
            "unpause()": "infinite",
            "update(uint24,address)": "26938",
            "withdrawBalance(address)": "infinite",
            "withdrawTokenBalance(address,address)": "infinite"
        },
        "internal": {
            "checkBalance(address,address)": "infinite",
            "performSwapBatch(address,address[] memory,uint256[] memory,uint24[] memory,uint256,address,bool)": "infinite",
            "swap(address,uint256,uint24,address,address,uint256)": "infinite"
        }
    }
}