{
  "_format": "hh-sol-artifact-1",
  "contractName": "Lock",
  "sourceName": "contracts/Lock.sol",
  "abi": [
    {
      "inputs": [
        {
          "internalType": "uint256",
          "name": "_unlockTime",
          "type": "uint256"
        }
      ],
      "stateMutability": "payable",
      "type": "constructor"
    },
    {
      "anonymous": false,
      "inputs": [
        {
          "indexed": false,
          "internalType": "uint256",
          "name": "amount",
          "type": "uint256"
        },
        {
          "indexed": false,
          "internalType": "uint256",
          "name": "when",
          "type": "uint256"
        }
      ],
      "name": "Withdrawal",
      "type": "event"
    },
    {
      "inputs": [],
      "name": "owner",
      "outputs": [
        {
          "internalType": "address payable",
          "name": "",
          "type": "address"
        }
      ],
      "stateMutability": "view",
      "type": "function"
    },
    {
      "inputs": [],
      "name": "unlockTime",
      "outputs": [
        {
          "internalType": "uint256",
          "name": "",
          "type": "uint256"
        }
      ],
      "stateMutability": "view",
      "type": "function"
    },
    {
      "inputs": [],
      "name": "withdraw",
      "outputs": [],
      "stateMutability": "nonpayable",
      "type": "function"
    }
  ],
  "bytecode": "0x6080601f61028438819003918201601f19168301916001600160401b038311848410176100ba578084926020946040528339810103126100b6575180421015610065575f55600180546001600160a01b031916331790556040516101b590816100cf8239f35b60405162461bcd60e51b815260206004820152602360248201527f556e6c6f636b2074696d652073686f756c6420626520696e207468652066757460448201526275726560e81b6064820152608490fd5b5f80fd5b634e487b7160e01b5f52604160045260245ffdfe60806040908082526004361015610014575f80fd5b5f3560e01c908163251c1aa314610166575080633ccfd60b1461006a57638da5cb5b1461003f575f80fd5b34610066575f3660031901126100665760015490516001600160a01b039091168152602090f35b5f80fd5b5034610066575f366003190112610066575f54421061012a576001546001600160a01b0316338190036100ef575f808080937fbf2ed60bd5b5965d685680c01195c9514e4382e28e3a5a2d2d5244bf59411b9386478151908152426020820152a147908282156100e6575bf1156100dd57005b513d5f823e3d90fd5b506108fc6100d5565b815162461bcd60e51b81526020600482015260146024820152732cb7ba9030b932b713ba103a34329037bbb732b960611b6044820152606490fd5b5162461bcd60e51b8152602060048201526016602482015275165bdd4818d85b89dd081dda5d1a191c985dc81e595d60521b6044820152606490fd5b34610066575f366003190112610066576020905f548152f3fea26469706673582212201610b57aa66263a5ae0440007907ec94597c546b0536efc76f9e0c55d34dcbd064736f6c63430008180033",
  "linkReferences": {},
  "deployedLinkReferences": {}
}