{
  "_format": "hh-sol-artifact-1",
  "contractName": "Xucre",
  "sourceName": "contracts/Xucre.sol",
  "abi": [
    {
      "inputs": [
        {
          "internalType": "address",
          "name": "owner",
          "type": "address"
        },
        {
          "internalType": "string",
          "name": "_name",
          "type": "string"
        },
        {
          "internalType": "string",
          "name": "_symbol",
          "type": "string"
        }
      ],
      "stateMutability": "nonpayable",
      "type": "constructor"
    },
    {
      "anonymous": false,
      "inputs": [
        {
          "indexed": true,
          "internalType": "address",
          "name": "owner",
          "type": "address"
        },
        {
          "indexed": true,
          "internalType": "address",
          "name": "spender",
          "type": "address"
        },
        {
          "indexed": false,
          "internalType": "uint256",
          "name": "value",
          "type": "uint256"
        }
      ],
      "name": "Approval",
      "type": "event"
    },
    {
      "anonymous": false,
      "inputs": [
        {
          "indexed": false,
          "internalType": "address",
          "name": "account",
          "type": "address"
        }
      ],
      "name": "Paused",
      "type": "event"
    },
    {
      "anonymous": false,
      "inputs": [
        {
          "indexed": true,
          "internalType": "bytes32",
          "name": "role",
          "type": "bytes32"
        },
        {
          "indexed": true,
          "internalType": "bytes32",
          "name": "previousAdminRole",
          "type": "bytes32"
        },
        {
          "indexed": true,
          "internalType": "bytes32",
          "name": "newAdminRole",
          "type": "bytes32"
        }
      ],
      "name": "RoleAdminChanged",
      "type": "event"
    },
    {
      "anonymous": false,
      "inputs": [
        {
          "indexed": true,
          "internalType": "bytes32",
          "name": "role",
          "type": "bytes32"
        },
        {
          "indexed": true,
          "internalType": "address",
          "name": "account",
          "type": "address"
        },
        {
          "indexed": true,
          "internalType": "address",
          "name": "sender",
          "type": "address"
        }
      ],
      "name": "RoleGranted",
      "type": "event"
    },
    {
      "anonymous": false,
      "inputs": [
        {
          "indexed": true,
          "internalType": "bytes32",
          "name": "role",
          "type": "bytes32"
        },
        {
          "indexed": true,
          "internalType": "address",
          "name": "account",
          "type": "address"
        },
        {
          "indexed": true,
          "internalType": "address",
          "name": "sender",
          "type": "address"
        }
      ],
      "name": "RoleRevoked",
      "type": "event"
    },
    {
      "anonymous": false,
      "inputs": [
        {
          "indexed": true,
          "internalType": "address",
          "name": "from",
          "type": "address"
        },
        {
          "indexed": true,
          "internalType": "address",
          "name": "to",
          "type": "address"
        },
        {
          "indexed": false,
          "internalType": "uint256",
          "name": "value",
          "type": "uint256"
        }
      ],
      "name": "Transfer",
      "type": "event"
    },
    {
      "anonymous": false,
      "inputs": [
        {
          "indexed": false,
          "internalType": "address",
          "name": "account",
          "type": "address"
        }
      ],
      "name": "Unpaused",
      "type": "event"
    },
    {
      "inputs": [],
      "name": "DEFAULT_ADMIN_ROLE",
      "outputs": [
        {
          "internalType": "bytes32",
          "name": "",
          "type": "bytes32"
        }
      ],
      "stateMutability": "view",
      "type": "function"
    },
    {
      "inputs": [],
      "name": "MINTER_ROLE",
      "outputs": [
        {
          "internalType": "bytes32",
          "name": "",
          "type": "bytes32"
        }
      ],
      "stateMutability": "view",
      "type": "function"
    },
    {
      "inputs": [],
      "name": "PAUSER_ROLE",
      "outputs": [
        {
          "internalType": "bytes32",
          "name": "",
          "type": "bytes32"
        }
      ],
      "stateMutability": "view",
      "type": "function"
    },
    {
      "inputs": [
        {
          "internalType": "address",
          "name": "owner",
          "type": "address"
        },
        {
          "internalType": "address",
          "name": "spender",
          "type": "address"
        }
      ],
      "name": "allowance",
      "outputs": [
        {
          "internalType": "uint256",
          "name": "",
          "type": "uint256"
        }
      ],
      "stateMutability": "view",
      "type": "function"
    },
    {
      "inputs": [
        {
          "internalType": "address",
          "name": "spender",
          "type": "address"
        },
        {
          "internalType": "uint256",
          "name": "amount",
          "type": "uint256"
        }
      ],
      "name": "approve",
      "outputs": [
        {
          "internalType": "bool",
          "name": "",
          "type": "bool"
        }
      ],
      "stateMutability": "nonpayable",
      "type": "function"
    },
    {
      "inputs": [
        {
          "internalType": "address",
          "name": "account",
          "type": "address"
        }
      ],
      "name": "balanceOf",
      "outputs": [
        {
          "internalType": "uint256",
          "name": "",
          "type": "uint256"
        }
      ],
      "stateMutability": "view",
      "type": "function"
    },
    {
      "inputs": [
        {
          "internalType": "uint256",
          "name": "amount",
          "type": "uint256"
        }
      ],
      "name": "burn",
      "outputs": [],
      "stateMutability": "nonpayable",
      "type": "function"
    },
    {
      "inputs": [
        {
          "internalType": "address",
          "name": "account",
          "type": "address"
        },
        {
          "internalType": "uint256",
          "name": "amount",
          "type": "uint256"
        }
      ],
      "name": "burnFrom",
      "outputs": [],
      "stateMutability": "nonpayable",
      "type": "function"
    },
    {
      "inputs": [],
      "name": "decimals",
      "outputs": [
        {
          "internalType": "uint8",
          "name": "",
          "type": "uint8"
        }
      ],
      "stateMutability": "view",
      "type": "function"
    },
    {
      "inputs": [
        {
          "internalType": "address",
          "name": "spender",
          "type": "address"
        },
        {
          "internalType": "uint256",
          "name": "subtractedValue",
          "type": "uint256"
        }
      ],
      "name": "decreaseAllowance",
      "outputs": [
        {
          "internalType": "bool",
          "name": "",
          "type": "bool"
        }
      ],
      "stateMutability": "nonpayable",
      "type": "function"
    },
    {
      "inputs": [
        {
          "internalType": "bytes32",
          "name": "role",
          "type": "bytes32"
        }
      ],
      "name": "getRoleAdmin",
      "outputs": [
        {
          "internalType": "bytes32",
          "name": "",
          "type": "bytes32"
        }
      ],
      "stateMutability": "view",
      "type": "function"
    },
    {
      "inputs": [
        {
          "internalType": "bytes32",
          "name": "role",
          "type": "bytes32"
        },
        {
          "internalType": "address",
          "name": "account",
          "type": "address"
        }
      ],
      "name": "grantRole",
      "outputs": [],
      "stateMutability": "nonpayable",
      "type": "function"
    },
    {
      "inputs": [
        {
          "internalType": "bytes32",
          "name": "role",
          "type": "bytes32"
        },
        {
          "internalType": "address",
          "name": "account",
          "type": "address"
        }
      ],
      "name": "hasRole",
      "outputs": [
        {
          "internalType": "bool",
          "name": "",
          "type": "bool"
        }
      ],
      "stateMutability": "view",
      "type": "function"
    },
    {
      "inputs": [
        {
          "internalType": "address",
          "name": "spender",
          "type": "address"
        },
        {
          "internalType": "uint256",
          "name": "addedValue",
          "type": "uint256"
        }
      ],
      "name": "increaseAllowance",
      "outputs": [
        {
          "internalType": "bool",
          "name": "",
          "type": "bool"
        }
      ],
      "stateMutability": "nonpayable",
      "type": "function"
    },
    {
      "inputs": [
        {
          "internalType": "address",
          "name": "to",
          "type": "address"
        },
        {
          "internalType": "uint256",
          "name": "amount",
          "type": "uint256"
        }
      ],
      "name": "mint",
      "outputs": [],
      "stateMutability": "nonpayable",
      "type": "function"
    },
    {
      "inputs": [],
      "name": "name",
      "outputs": [
        {
          "internalType": "string",
          "name": "",
          "type": "string"
        }
      ],
      "stateMutability": "view",
      "type": "function"
    },
    {
      "inputs": [],
      "name": "pause",
      "outputs": [],
      "stateMutability": "nonpayable",
      "type": "function"
    },
    {
      "inputs": [],
      "name": "paused",
      "outputs": [
        {
          "internalType": "bool",
          "name": "",
          "type": "bool"
        }
      ],
      "stateMutability": "view",
      "type": "function"
    },
    {
      "inputs": [
        {
          "internalType": "bytes32",
          "name": "role",
          "type": "bytes32"
        },
        {
          "internalType": "address",
          "name": "account",
          "type": "address"
        }
      ],
      "name": "renounceRole",
      "outputs": [],
      "stateMutability": "nonpayable",
      "type": "function"
    },
    {
      "inputs": [
        {
          "internalType": "bytes32",
          "name": "role",
          "type": "bytes32"
        },
        {
          "internalType": "address",
          "name": "account",
          "type": "address"
        }
      ],
      "name": "revokeRole",
      "outputs": [],
      "stateMutability": "nonpayable",
      "type": "function"
    },
    {
      "inputs": [
        {
          "internalType": "bytes4",
          "name": "interfaceId",
          "type": "bytes4"
        }
      ],
      "name": "supportsInterface",
      "outputs": [
        {
          "internalType": "bool",
          "name": "",
          "type": "bool"
        }
      ],
      "stateMutability": "view",
      "type": "function"
    },
    {
      "inputs": [],
      "name": "symbol",
      "outputs": [
        {
          "internalType": "string",
          "name": "",
          "type": "string"
        }
      ],
      "stateMutability": "view",
      "type": "function"
    },
    {
      "inputs": [],
      "name": "totalSupply",
      "outputs": [
        {
          "internalType": "uint256",
          "name": "",
          "type": "uint256"
        }
      ],
      "stateMutability": "view",
      "type": "function"
    },
    {
      "inputs": [
        {
          "internalType": "address",
          "name": "to",
          "type": "address"
        },
        {
          "internalType": "uint256",
          "name": "amount",
          "type": "uint256"
        }
      ],
      "name": "transfer",
      "outputs": [
        {
          "internalType": "bool",
          "name": "",
          "type": "bool"
        }
      ],
      "stateMutability": "nonpayable",
      "type": "function"
    },
    {
      "inputs": [
        {
          "internalType": "address",
          "name": "from",
          "type": "address"
        },
        {
          "internalType": "address",
          "name": "to",
          "type": "address"
        },
        {
          "internalType": "uint256",
          "name": "amount",
          "type": "uint256"
        }
      ],
      "name": "transferFrom",
      "outputs": [
        {
          "internalType": "bool",
          "name": "",
          "type": "bool"
        }
      ],
      "stateMutability": "nonpayable",
      "type": "function"
    },
    {
      "inputs": [],
      "name": "unpause",
      "outputs": [],
      "stateMutability": "nonpayable",
      "type": "function"
    },
    {
      "inputs": [
        {
          "internalType": "address",
          "name": "to",
          "type": "address"
        }
      ],
      "name": "withdrawBalance",
      "outputs": [],
      "stateMutability": "nonpayable",
      "type": "function"
    },
    {
      "stateMutability": "payable",
      "type": "receive"
    }
  ],
  "bytecode": "0x60806040523480156200001157600080fd5b5060405162001bcd38038062001bcd833981016040819052620000349162000478565b8151829082906200004d90600390602085019062000305565b5080516200006390600490602084019062000305565b50506005805460ff19169055506200007d60008462000107565b620000a97f65d7a28e3265b37a6474929f336521b332c1681b933f6cb9f3376673440d862a8462000107565b620000d283620000bc6012600a62000615565b620000cc90633b9aca006200062d565b62000192565b620000fe7f9f2df0fed2c77648de5860a4cc508cd0818c85b8b8a1ab4ceeef8d981c8956a68462000107565b505050620006a7565b62000113828262000267565b6200018e5760008281526006602090815260408083206001600160a01b03851684529091529020805460ff191660011790556200014d3390565b6001600160a01b0316816001600160a01b0316837f2f8788117e7eff1d82e926ec794901d17c78024a50270940304540a733656f0d60405160405180910390a45b5050565b6001600160a01b038216620001ee5760405162461bcd60e51b815260206004820152601f60248201527f45524332303a206d696e7420746f20746865207a65726f20616464726573730060448201526064015b60405180910390fd5b620001fc6000838362000294565b80600260008282546200021091906200064f565b90915550506001600160a01b038216600081815260208181526040808320805486019055518481527fddf252ad1be2c89b69c2b068fc378daa952ba7f163c4a11628f55a4df523b3ef910160405180910390a35050565b60008281526006602090815260408083206001600160a01b038516845290915290205460ff165b92915050565b6200029e620002bb565b620002b6838383620002b660201b620005dc1760201c565b505050565b60055460ff1615620003035760405162461bcd60e51b815260206004820152601060248201526f14185d5cd8589b194e881c185d5cd95960821b6044820152606401620001e5565b565b82805462000313906200066a565b90600052602060002090601f01602090048101928262000337576000855562000382565b82601f106200035257805160ff191683800117855562000382565b8280016001018555821562000382579182015b828111156200038257825182559160200191906001019062000365565b506200039092915062000394565b5090565b5b8082111562000390576000815560010162000395565b634e487b7160e01b600052604160045260246000fd5b600082601f830112620003d357600080fd5b81516001600160401b0380821115620003f057620003f0620003ab565b604051601f8301601f19908116603f011681019082821181831017156200041b576200041b620003ab565b816040528381526020925086838588010111156200043857600080fd5b600091505b838210156200045c57858201830151818301840152908201906200043d565b838211156200046e5760008385830101525b9695505050505050565b6000806000606084860312156200048e57600080fd5b83516001600160a01b0381168114620004a657600080fd5b60208501519093506001600160401b0380821115620004c457600080fd5b620004d287838801620003c1565b93506040860151915080821115620004e957600080fd5b50620004f886828701620003c1565b9150509250925092565b634e487b7160e01b600052601160045260246000fd5b600181815b80851115620005595781600019048211156200053d576200053d62000502565b808516156200054b57918102915b93841c93908002906200051d565b509250929050565b60008262000572575060016200028e565b8162000581575060006200028e565b81600181146200059a5760028114620005a557620005c5565b60019150506200028e565b60ff841115620005b957620005b962000502565b50506001821b6200028e565b5060208310610133831016604e8410600b8410161715620005ea575081810a6200028e565b620005f6838362000518565b80600019048211156200060d576200060d62000502565b029392505050565b60006200062660ff84168362000561565b9392505050565b60008160001904831182151516156200064a576200064a62000502565b500290565b6000821982111562000665576200066562000502565b500190565b600181811c908216806200067f57607f821691505b60208210811415620006a157634e487b7160e01b600052602260045260246000fd5b50919050565b61151680620006b76000396000f3fe6080604052600436106101405760003560e01c806301ffc9a71461014c57806306fdde0314610181578063095ea7b3146101a357806318160ddd146101c357806323b872dd146101e2578063248a9ca3146102025780632f2ff15d14610222578063313ce5671461024457806336568abe1461026057806339509351146102805780633f4ba83a146102a057806340c10f19146102b557806342966c68146102d55780635c975abb146102f557806370a082311461030d578063756af45f1461034357806379cc6790146103635780638456cb591461038357806391d148541461039857806395d89b41146103b8578063a217fddf146103cd578063a457c2d7146103e2578063a9059cbb14610402578063d539139314610422578063d547741f14610444578063dd62ed3e14610464578063e63ab1e91461048457600080fd5b3661014757005b600080fd5b34801561015857600080fd5b5061016c6101673660046111b1565b6104a6565b60405190151581526020015b60405180910390f35b34801561018d57600080fd5b506101966104dd565b6040516101789190611207565b3480156101af57600080fd5b5061016c6101be366004611256565b61056f565b3480156101cf57600080fd5b506002545b604051908152602001610178565b3480156101ee57600080fd5b5061016c6101fd366004611280565b610587565b34801561020e57600080fd5b506101d461021d3660046112bc565b6105ab565b34801561022e57600080fd5b5061024261023d3660046112d5565b6105c0565b005b34801561025057600080fd5b5060405160128152602001610178565b34801561026c57600080fd5b5061024261027b3660046112d5565b6105e1565b34801561028c57600080fd5b5061016c61029b366004611256565b610664565b3480156102ac57600080fd5b50610242610686565b3480156102c157600080fd5b506102426102d0366004611256565b6106a9565b3480156102e157600080fd5b506102426102f03660046112bc565b6106cb565b34801561030157600080fd5b5060055460ff1661016c565b34801561031957600080fd5b506101d4610328366004611301565b6001600160a01b031660009081526020819052604090205490565b34801561034f57600080fd5b5061024261035e366004611301565b6106d5565b34801561036f57600080fd5b5061024261037e366004611256565b61072c565b34801561038f57600080fd5b50610242610741565b3480156103a457600080fd5b5061016c6103b33660046112d5565b610761565b3480156103c457600080fd5b5061019661078c565b3480156103d957600080fd5b506101d4600081565b3480156103ee57600080fd5b5061016c6103fd366004611256565b61079b565b34801561040e57600080fd5b5061016c61041d366004611256565b610816565b34801561042e57600080fd5b506101d46000805160206114a183398151915281565b34801561045057600080fd5b5061024261045f3660046112d5565b610824565b34801561047057600080fd5b506101d461047f36600461131c565b610840565b34801561049057600080fd5b506101d460008051602061148183398151915281565b60006001600160e01b03198216637965db0b60e01b14806104d757506301ffc9a760e01b6001600160e01b03198316145b92915050565b6060600380546104ec90611346565b80601f016020809104026020016040519081016040528092919081815260200182805461051890611346565b80156105655780601f1061053a57610100808354040283529160200191610565565b820191906000526020600020905b81548152906001019060200180831161054857829003601f168201915b5050505050905090565b60003361057d81858561086b565b5060019392505050565b60003361059585828561098f565b6105a0858585610a03565b506001949350505050565b60009081526006602052604090206001015490565b6105c9826105ab565b6105d281610ba0565b6105dc8383610baa565b505050565b6001600160a01b03811633146106565760405162461bcd60e51b815260206004820152602f60248201527f416363657373436f6e74726f6c3a2063616e206f6e6c792072656e6f756e636560448201526e103937b632b9903337b91039b2b63360891b60648201526084015b60405180910390fd5b6106608282610c30565b5050565b60003361057d8185856106778383610840565b6106819190611397565b61086b565b60008051602061148183398151915261069e81610ba0565b6106a6610c97565b50565b6000805160206114a18339815191526106c181610ba0565b6105dc8383610ce9565b6106a63382610da2565b60006106e081610ba0565b6001600160a01b038216156106605760405182906001600160a01b038216904780156108fc02916000818181858888f19350505050158015610726573d6000803e3d6000fd5b50505050565b61073782338361098f565b6106608282610da2565b60008051602061148183398151915261075981610ba0565b6106a6610ece565b60009182526006602090815260408084206001600160a01b0393909316845291905290205460ff1690565b6060600480546104ec90611346565b600033816107a98286610840565b9050838110156108095760405162461bcd60e51b815260206004820152602560248201527f45524332303a2064656372656173656420616c6c6f77616e63652062656c6f77604482015264207a65726f60d81b606482015260840161064d565b6105a0828686840361086b565b60003361057d818585610a03565b61082d826105ab565b61083681610ba0565b6105dc8383610c30565b6001600160a01b03918216600090815260016020908152604080832093909416825291909152205490565b6001600160a01b0383166108cd5760405162461bcd60e51b8152602060048201526024808201527f45524332303a20617070726f76652066726f6d20746865207a65726f206164646044820152637265737360e01b606482015260840161064d565b6001600160a01b03821661092e5760405162461bcd60e51b815260206004820152602260248201527f45524332303a20617070726f766520746f20746865207a65726f206164647265604482015261737360f01b606482015260840161064d565b6001600160a01b0383811660008181526001602090815260408083209487168084529482529182902085905590518481527f8c5be1e5ebec7d5bd14f71427d1e84f3dd0314c0f7b2291e5b200ac8c7c3b925910160405180910390a3505050565b600061099b8484610840565b9050600019811461072657818110156109f65760405162461bcd60e51b815260206004820152601d60248201527f45524332303a20696e73756666696369656e7420616c6c6f77616e6365000000604482015260640161064d565b610726848484840361086b565b6001600160a01b038316610a675760405162461bcd60e51b815260206004820152602560248201527f45524332303a207472616e736665722066726f6d20746865207a65726f206164604482015264647265737360d81b606482015260840161064d565b6001600160a01b038216610ac95760405162461bcd60e51b815260206004820152602360248201527f45524332303a207472616e7366657220746f20746865207a65726f206164647260448201526265737360e81b606482015260840161064d565b610ad4838383610f0b565b6001600160a01b03831660009081526020819052604090205481811015610b4c5760405162461bcd60e51b815260206004820152602660248201527f45524332303a207472616e7366657220616d6f756e7420657863656564732062604482015265616c616e636560d01b606482015260840161064d565b6001600160a01b03848116600081815260208181526040808320878703905593871680835291849020805487019055925185815290926000805160206114c1833981519152910160405180910390a3610726565b6106a68133610f13565b610bb48282610761565b6106605760008281526006602090815260408083206001600160a01b03851684529091529020805460ff19166001179055610bec3390565b6001600160a01b0316816001600160a01b0316837f2f8788117e7eff1d82e926ec794901d17c78024a50270940304540a733656f0d60405160405180910390a45050565b610c3a8282610761565b156106605760008281526006602090815260408083206001600160a01b0385168085529252808320805460ff1916905551339285917ff6391f5c32d9c69d2a47ea670b442974b53935d1edc7fd64eb21e047a839171b9190a45050565b610c9f610f6c565b6005805460ff191690557f5db9ee0a495bf2e6ff9c91a7834c1ba4fdd244a5e8aa4e537bd38aeae4b073aa335b6040516001600160a01b03909116815260200160405180910390a1565b6001600160a01b038216610d3f5760405162461bcd60e51b815260206004820152601f60248201527f45524332303a206d696e7420746f20746865207a65726f206164647265737300604482015260640161064d565b610d4b60008383610f0b565b8060026000828254610d5d9190611397565b90915550506001600160a01b038216600081815260208181526040808320805486019055518481526000805160206114c1833981519152910160405180910390a35050565b6001600160a01b038216610e025760405162461bcd60e51b815260206004820152602160248201527f45524332303a206275726e2066726f6d20746865207a65726f206164647265736044820152607360f81b606482015260840161064d565b610e0e82600083610f0b565b6001600160a01b03821660009081526020819052604090205481811015610e825760405162461bcd60e51b815260206004820152602260248201527f45524332303a206275726e20616d6f756e7420657863656564732062616c616e604482015261636560f01b606482015260840161064d565b6001600160a01b0383166000818152602081815260408083208686039055600280548790039055518581529192916000805160206114c1833981519152910160405180910390a3505050565b610ed6610fb7565b6005805460ff191660011790557f62e78cea01bee320cd4e420270b5ea74000d11b0c9f74754ebdbfc544b05a258610ccc3390565b6105dc610fb7565b610f1d8282610761565b61066057610f2a81610ffd565b610f3583602061100f565b604051602001610f469291906113af565b60408051601f198184030181529082905262461bcd60e51b825261064d91600401611207565b60055460ff16610fb55760405162461bcd60e51b815260206004820152601460248201527314185d5cd8589b194e881b9bdd081c185d5cd95960621b604482015260640161064d565b565b60055460ff1615610fb55760405162461bcd60e51b815260206004820152601060248201526f14185d5cd8589b194e881c185d5cd95960821b604482015260640161064d565b60606104d76001600160a01b03831660145b6060600061101e83600261141e565b611029906002611397565b6001600160401b038111156110405761104061143d565b6040519080825280601f01601f19166020018201604052801561106a576020820181803683370190505b509050600360fc1b8160008151811061108557611085611453565b60200101906001600160f81b031916908160001a905350600f60fb1b816001815181106110b4576110b4611453565b60200101906001600160f81b031916908160001a90535060006110d884600261141e565b6110e3906001611397565b90505b600181111561115b576f181899199a1a9b1b9c1cb0b131b232b360811b85600f166010811061111757611117611453565b1a60f81b82828151811061112d5761112d611453565b60200101906001600160f81b031916908160001a90535060049490941c9361115481611469565b90506110e6565b5083156111aa5760405162461bcd60e51b815260206004820181905260248201527f537472696e67733a20686578206c656e67746820696e73756666696369656e74604482015260640161064d565b9392505050565b6000602082840312156111c357600080fd5b81356001600160e01b0319811681146111aa57600080fd5b60005b838110156111f65781810151838201526020016111de565b838111156107265750506000910152565b60208152600082518060208401526112268160408501602087016111db565b601f01601f19169190910160400192915050565b80356001600160a01b038116811461125157600080fd5b919050565b6000806040838503121561126957600080fd5b6112728361123a565b946020939093013593505050565b60008060006060848603121561129557600080fd5b61129e8461123a565b92506112ac6020850161123a565b9150604084013590509250925092565b6000602082840312156112ce57600080fd5b5035919050565b600080604083850312156112e857600080fd5b823591506112f86020840161123a565b90509250929050565b60006020828403121561131357600080fd5b6111aa8261123a565b6000806040838503121561132f57600080fd5b6113388361123a565b91506112f86020840161123a565b600181811c9082168061135a57607f821691505b6020821081141561137b57634e487b7160e01b600052602260045260246000fd5b50919050565b634e487b7160e01b600052601160045260246000fd5b600082198211156113aa576113aa611381565b500190565b76020b1b1b2b9b9a1b7b73a3937b61d1030b1b1b7bab73a1604d1b8152600083516113e18160178501602088016111db565b7001034b99036b4b9b9b4b733903937b6329607d1b60179184019182015283516114128160288401602088016111db565b01602801949350505050565b600081600019048311821515161561143857611438611381565b500290565b634e487b7160e01b600052604160045260246000fd5b634e487b7160e01b600052603260045260246000fd5b60008161147857611478611381565b50600019019056fe65d7a28e3265b37a6474929f336521b332c1681b933f6cb9f3376673440d862a9f2df0fed2c77648de5860a4cc508cd0818c85b8b8a1ab4ceeef8d981c8956a6ddf252ad1be2c89b69c2b068fc378daa952ba7f163c4a11628f55a4df523b3efa264697066735822122058e806472edcfafa14a7fe18f5e6388a0a7938646064f3ebf40e19747198a81364736f6c634300080c0033",
  "linkReferences": {},
  "deployedLinkReferences": {}
}