{
  "_format": "hh-sol-artifact-1",
  "contractName": "Xucre",
  "sourceName": "contracts/Xucre.sol",
  "abi": [
    {
      "inputs": [
        {
          "internalType": "address",
          "name": "owner",
          "type": "address"
        },
        {
          "internalType": "string",
          "name": "_name",
          "type": "string"
        },
        {
          "internalType": "string",
          "name": "_symbol",
          "type": "string"
        }
      ],
      "stateMutability": "nonpayable",
      "type": "constructor"
    },
    {
      "inputs": [],
      "name": "AccessControlBadConfirmation",
      "type": "error"
    },
    {
      "inputs": [
        {
          "internalType": "address",
          "name": "account",
          "type": "address"
        },
        {
          "internalType": "bytes32",
          "name": "neededRole",
          "type": "bytes32"
        }
      ],
      "name": "AccessControlUnauthorizedAccount",
      "type": "error"
    },
    {
      "inputs": [
        {
          "internalType": "address",
          "name": "spender",
          "type": "address"
        },
        {
          "internalType": "uint256",
          "name": "allowance",
          "type": "uint256"
        },
        {
          "internalType": "uint256",
          "name": "needed",
          "type": "uint256"
        }
      ],
      "name": "ERC20InsufficientAllowance",
      "type": "error"
    },
    {
      "inputs": [
        {
          "internalType": "address",
          "name": "sender",
          "type": "address"
        },
        {
          "internalType": "uint256",
          "name": "balance",
          "type": "uint256"
        },
        {
          "internalType": "uint256",
          "name": "needed",
          "type": "uint256"
        }
      ],
      "name": "ERC20InsufficientBalance",
      "type": "error"
    },
    {
      "inputs": [
        {
          "internalType": "address",
          "name": "approver",
          "type": "address"
        }
      ],
      "name": "ERC20InvalidApprover",
      "type": "error"
    },
    {
      "inputs": [
        {
          "internalType": "address",
          "name": "receiver",
          "type": "address"
        }
      ],
      "name": "ERC20InvalidReceiver",
      "type": "error"
    },
    {
      "inputs": [
        {
          "internalType": "address",
          "name": "sender",
          "type": "address"
        }
      ],
      "name": "ERC20InvalidSender",
      "type": "error"
    },
    {
      "inputs": [
        {
          "internalType": "address",
          "name": "spender",
          "type": "address"
        }
      ],
      "name": "ERC20InvalidSpender",
      "type": "error"
    },
    {
      "inputs": [],
      "name": "EnforcedPause",
      "type": "error"
    },
    {
      "inputs": [],
      "name": "ExpectedPause",
      "type": "error"
    },
    {
      "anonymous": false,
      "inputs": [
        {
          "indexed": true,
          "internalType": "address",
          "name": "owner",
          "type": "address"
        },
        {
          "indexed": true,
          "internalType": "address",
          "name": "spender",
          "type": "address"
        },
        {
          "indexed": false,
          "internalType": "uint256",
          "name": "value",
          "type": "uint256"
        }
      ],
      "name": "Approval",
      "type": "event"
    },
    {
      "anonymous": false,
      "inputs": [
        {
          "indexed": false,
          "internalType": "address",
          "name": "account",
          "type": "address"
        }
      ],
      "name": "Paused",
      "type": "event"
    },
    {
      "anonymous": false,
      "inputs": [
        {
          "indexed": true,
          "internalType": "bytes32",
          "name": "role",
          "type": "bytes32"
        },
        {
          "indexed": true,
          "internalType": "bytes32",
          "name": "previousAdminRole",
          "type": "bytes32"
        },
        {
          "indexed": true,
          "internalType": "bytes32",
          "name": "newAdminRole",
          "type": "bytes32"
        }
      ],
      "name": "RoleAdminChanged",
      "type": "event"
    },
    {
      "anonymous": false,
      "inputs": [
        {
          "indexed": true,
          "internalType": "bytes32",
          "name": "role",
          "type": "bytes32"
        },
        {
          "indexed": true,
          "internalType": "address",
          "name": "account",
          "type": "address"
        },
        {
          "indexed": true,
          "internalType": "address",
          "name": "sender",
          "type": "address"
        }
      ],
      "name": "RoleGranted",
      "type": "event"
    },
    {
      "anonymous": false,
      "inputs": [
        {
          "indexed": true,
          "internalType": "bytes32",
          "name": "role",
          "type": "bytes32"
        },
        {
          "indexed": true,
          "internalType": "address",
          "name": "account",
          "type": "address"
        },
        {
          "indexed": true,
          "internalType": "address",
          "name": "sender",
          "type": "address"
        }
      ],
      "name": "RoleRevoked",
      "type": "event"
    },
    {
      "anonymous": false,
      "inputs": [
        {
          "indexed": true,
          "internalType": "address",
          "name": "from",
          "type": "address"
        },
        {
          "indexed": true,
          "internalType": "address",
          "name": "to",
          "type": "address"
        },
        {
          "indexed": false,
          "internalType": "uint256",
          "name": "value",
          "type": "uint256"
        }
      ],
      "name": "Transfer",
      "type": "event"
    },
    {
      "anonymous": false,
      "inputs": [
        {
          "indexed": false,
          "internalType": "address",
          "name": "account",
          "type": "address"
        }
      ],
      "name": "Unpaused",
      "type": "event"
    },
    {
      "inputs": [],
      "name": "DEFAULT_ADMIN_ROLE",
      "outputs": [
        {
          "internalType": "bytes32",
          "name": "",
          "type": "bytes32"
        }
      ],
      "stateMutability": "view",
      "type": "function"
    },
    {
      "inputs": [],
      "name": "MINTER_ROLE",
      "outputs": [
        {
          "internalType": "bytes32",
          "name": "",
          "type": "bytes32"
        }
      ],
      "stateMutability": "view",
      "type": "function"
    },
    {
      "inputs": [],
      "name": "PAUSER_ROLE",
      "outputs": [
        {
          "internalType": "bytes32",
          "name": "",
          "type": "bytes32"
        }
      ],
      "stateMutability": "view",
      "type": "function"
    },
    {
      "inputs": [
        {
          "internalType": "address",
          "name": "owner",
          "type": "address"
        },
        {
          "internalType": "address",
          "name": "spender",
          "type": "address"
        }
      ],
      "name": "allowance",
      "outputs": [
        {
          "internalType": "uint256",
          "name": "",
          "type": "uint256"
        }
      ],
      "stateMutability": "view",
      "type": "function"
    },
    {
      "inputs": [
        {
          "internalType": "address",
          "name": "spender",
          "type": "address"
        },
        {
          "internalType": "uint256",
          "name": "value",
          "type": "uint256"
        }
      ],
      "name": "approve",
      "outputs": [
        {
          "internalType": "bool",
          "name": "",
          "type": "bool"
        }
      ],
      "stateMutability": "nonpayable",
      "type": "function"
    },
    {
      "inputs": [
        {
          "internalType": "address",
          "name": "account",
          "type": "address"
        }
      ],
      "name": "balanceOf",
      "outputs": [
        {
          "internalType": "uint256",
          "name": "",
          "type": "uint256"
        }
      ],
      "stateMutability": "view",
      "type": "function"
    },
    {
      "inputs": [
        {
          "internalType": "uint256",
          "name": "value",
          "type": "uint256"
        }
      ],
      "name": "burn",
      "outputs": [],
      "stateMutability": "nonpayable",
      "type": "function"
    },
    {
      "inputs": [
        {
          "internalType": "address",
          "name": "account",
          "type": "address"
        },
        {
          "internalType": "uint256",
          "name": "value",
          "type": "uint256"
        }
      ],
      "name": "burnFrom",
      "outputs": [],
      "stateMutability": "nonpayable",
      "type": "function"
    },
    {
      "inputs": [],
      "name": "decimals",
      "outputs": [
        {
          "internalType": "uint8",
          "name": "",
          "type": "uint8"
        }
      ],
      "stateMutability": "view",
      "type": "function"
    },
    {
      "inputs": [
        {
          "internalType": "bytes32",
          "name": "role",
          "type": "bytes32"
        }
      ],
      "name": "getRoleAdmin",
      "outputs": [
        {
          "internalType": "bytes32",
          "name": "",
          "type": "bytes32"
        }
      ],
      "stateMutability": "view",
      "type": "function"
    },
    {
      "inputs": [
        {
          "internalType": "bytes32",
          "name": "role",
          "type": "bytes32"
        },
        {
          "internalType": "address",
          "name": "account",
          "type": "address"
        }
      ],
      "name": "grantRole",
      "outputs": [],
      "stateMutability": "nonpayable",
      "type": "function"
    },
    {
      "inputs": [
        {
          "internalType": "bytes32",
          "name": "role",
          "type": "bytes32"
        },
        {
          "internalType": "address",
          "name": "account",
          "type": "address"
        }
      ],
      "name": "hasRole",
      "outputs": [
        {
          "internalType": "bool",
          "name": "",
          "type": "bool"
        }
      ],
      "stateMutability": "view",
      "type": "function"
    },
    {
      "inputs": [
        {
          "internalType": "address",
          "name": "to",
          "type": "address"
        },
        {
          "internalType": "uint256",
          "name": "amount",
          "type": "uint256"
        }
      ],
      "name": "mint",
      "outputs": [],
      "stateMutability": "nonpayable",
      "type": "function"
    },
    {
      "inputs": [],
      "name": "name",
      "outputs": [
        {
          "internalType": "string",
          "name": "",
          "type": "string"
        }
      ],
      "stateMutability": "view",
      "type": "function"
    },
    {
      "inputs": [],
      "name": "pause",
      "outputs": [],
      "stateMutability": "nonpayable",
      "type": "function"
    },
    {
      "inputs": [],
      "name": "paused",
      "outputs": [
        {
          "internalType": "bool",
          "name": "",
          "type": "bool"
        }
      ],
      "stateMutability": "view",
      "type": "function"
    },
    {
      "inputs": [
        {
          "internalType": "bytes32",
          "name": "role",
          "type": "bytes32"
        },
        {
          "internalType": "address",
          "name": "callerConfirmation",
          "type": "address"
        }
      ],
      "name": "renounceRole",
      "outputs": [],
      "stateMutability": "nonpayable",
      "type": "function"
    },
    {
      "inputs": [
        {
          "internalType": "bytes32",
          "name": "role",
          "type": "bytes32"
        },
        {
          "internalType": "address",
          "name": "account",
          "type": "address"
        }
      ],
      "name": "revokeRole",
      "outputs": [],
      "stateMutability": "nonpayable",
      "type": "function"
    },
    {
      "inputs": [
        {
          "internalType": "bytes4",
          "name": "interfaceId",
          "type": "bytes4"
        }
      ],
      "name": "supportsInterface",
      "outputs": [
        {
          "internalType": "bool",
          "name": "",
          "type": "bool"
        }
      ],
      "stateMutability": "view",
      "type": "function"
    },
    {
      "inputs": [],
      "name": "symbol",
      "outputs": [
        {
          "internalType": "string",
          "name": "",
          "type": "string"
        }
      ],
      "stateMutability": "view",
      "type": "function"
    },
    {
      "inputs": [],
      "name": "totalSupply",
      "outputs": [
        {
          "internalType": "uint256",
          "name": "",
          "type": "uint256"
        }
      ],
      "stateMutability": "view",
      "type": "function"
    },
    {
      "inputs": [
        {
          "internalType": "address",
          "name": "to",
          "type": "address"
        },
        {
          "internalType": "uint256",
          "name": "value",
          "type": "uint256"
        }
      ],
      "name": "transfer",
      "outputs": [
        {
          "internalType": "bool",
          "name": "",
          "type": "bool"
        }
      ],
      "stateMutability": "nonpayable",
      "type": "function"
    },
    {
      "inputs": [
        {
          "internalType": "address",
          "name": "from",
          "type": "address"
        },
        {
          "internalType": "address",
          "name": "to",
          "type": "address"
        },
        {
          "internalType": "uint256",
          "name": "value",
          "type": "uint256"
        }
      ],
      "name": "transferFrom",
      "outputs": [
        {
          "internalType": "bool",
          "name": "",
          "type": "bool"
        }
      ],
      "stateMutability": "nonpayable",
      "type": "function"
    },
    {
      "inputs": [],
      "name": "unpause",
      "outputs": [],
      "stateMutability": "nonpayable",
      "type": "function"
    },
    {
      "inputs": [
        {
          "internalType": "address",
          "name": "to",
          "type": "address"
        }
      ],
      "name": "withdrawBalance",
      "outputs": [],
      "stateMutability": "nonpayable",
      "type": "function"
    },
    {
      "stateMutability": "payable",
      "type": "receive"
    }
  ],
  "bytecode": "0x60406080815234620003de57620014b090813803806200001f81620003e2565b938439820191606081840312620003de578051906001600160a01b03821690818303620003de5760208181015190956001600160401b03929091838111620003de57826200006f91830162000408565b9186820151848111620003de5762000088920162000408565b918151818111620002e2576003908154906001948583811c93168015620003d3575b8b841014620003bf5781908b601f9485811162000369575b50508b9084831160011462000302575f92620002f6575b50505f1982851b1c191690851b1782555b8451928311620002e25760049485548581811c91168015620002d7575b8b821014620002c4578281116200027c575b508991841160011462000215579383949184925f9562000209575b50501b925f19911b1c19161781555b60ff1960055416600555620001588362000478565b506200016483620004e8565b508115620001f3576002546b033b2e3c9fd0803ce800000091828201809211620001e05750620001d194955f927fddf252ad1be2c89b69c2b068fc378daa952ba7f163c4a11628f55a4df523b3ef926002558484528382528784208181540190558751908152a362000589565b5051610e4b9081620006258239f35b601190634e487b7160e01b5f525260245ffd5b6024905f85519163ec442f0560e01b8352820152fd5b015193505f8062000134565b9190601f19841692865f52848b5f20945f5b8d898383106200026457505050106200024a575b50505050811b01815562000143565b01519060f8845f19921b161c191690555f8080806200023b565b86860151895590970196948501948893500162000227565b865f528a5f208380870160051c8201928d8810620002ba575b0160051c019086905b828110620002ae57505062000119565b5f81550186906200029e565b9250819262000295565b602287634e487b7160e01b5f525260245ffd5b90607f169062000107565b634e487b7160e01b5f52604160045260245ffd5b015190505f80620000d9565b5f8681528d8120899550929190601f198516908f5b8282106200034f575050841162000337575b505050811b018255620000ea565b01515f1983871b60f8161c191690555f808062000329565b8484015186558b9790950194938401939081019062000317565b90919250855f5284825f209181860160051c8301938610620003b5575b918991869594930160051c01915b828110620003a657508d9150620000c2565b5f815585945089910162000394565b9250819262000386565b634e487b7160e01b5f52602260045260245ffd5b92607f1692620000aa565b5f80fd5b6040519190601f01601f191682016001600160401b03811183821017620002e257604052565b919080601f84011215620003de5782516001600160401b038111620002e2576020906200043e601f8201601f19168301620003e2565b92818452828287010111620003de575f5b818110620004645750825f9394955001015290565b85810183015184820184015282016200044f565b6001600160a01b03165f8181525f8051602062001490833981519152602052604090205460ff16620004e3575f8181525f805160206200149083398151915260205260408120805460ff191660011790553391905f80516020620014708339815191528180a4600190565b505f90565b6001600160a01b03165f8181527fe09f975e15f8f53f24cbbc282b13c40b84df485fcdb8d3997fa103dc5a4ef84160205260409020547f65d7a28e3265b37a6474929f336521b332c1681b933f6cb9f3376673440d862a919060ff166200058357815f52600660205260405f20815f5260205260405f20600160ff1982541617905533915f80516020620014708339815191525f80a4600190565b50505f90565b6001600160a01b03165f8181527f3195c024b2ddd6d9b8f6c836aa52f67fe69376c8903d009b80229b3ce4425f5160205260409020547f9f2df0fed2c77648de5860a4cc508cd0818c85b8b8a1ab4ceeef8d981c8956a6919060ff166200058357815f52600660205260405f20815f5260205260405f20600160ff1982541617905533915f80516020620014708339815191525f80a460019056fe6080604090808252600480361015610021575b505050361561001f575f80fd5b005b5f3560e01c91826301ffc9a71461097d5750816306fdde03146108a2578163095ea7b3146107fa57816318160ddd146107dc57816323b872dd146107a0578163248a9ca3146107765781632f2ff15d1461074e578163313ce5671461073357816336568abe146106ef5781633f4ba83a1461068857816340c10f191461058657816342966c681461056a5781635c975abb1461054757816370a0823114610511578163756af45f1461048157816379cc6790146104525781638456cb59146103e957816391d14854146103a557816395d89b4114610286578163a217fddf1461026c578163a9059cbb1461023c578163d539139314610202578163d547741f146101c857508063dd62ed3e1461017f5763e63ab1e914610142578080610012565b3461017b575f36600319011261017b57602090517f65d7a28e3265b37a6474929f336521b332c1681b933f6cb9f3376673440d862a8152f35b5f80fd5b503461017b578060031936011261017b5760209061019b610a16565b6101a3610a2c565b9060018060a01b038091165f5260018452825f2091165f528252805f20549051908152f35b823461017b578060031936011261017b5761001f91356101fd60016101eb610a2c565b93835f5260066020525f200154610c62565b610d02565b823461017b575f36600319011261017b57602090517f9f2df0fed2c77648de5860a4cc508cd0818c85b8b8a1ab4ceeef8d981c8956a68152f35b823461017b578060031936011261017b5760209061026561025b610a16565b6024359033610b0f565b5160018152f35b823461017b575f36600319011261017b57602090515f8152f35b823461017b575f36600319011261017b578051905f835460018160011c906001831692831561039b575b60209384841081146103885783885290811561036c5750600114610318575b505050829003601f01601f191682019267ffffffffffffffff84118385101761030557508291826103019252826109cf565b0390f35b604190634e487b7160e01b5f525260245ffd5b5f878152929350837f8a35acfbc15ff81a39ae7d344fd709f28e8600b4aa8c65c6b64bfe7fe36bd19b5b83851061035857505050508301018480806102cf565b805488860183015293019284908201610342565b60ff1916878501525050151560051b84010190508480806102cf565b602289634e487b7160e01b5f525260245ffd5b91607f16916102b0565b823461017b578060031936011261017b576020916103c1610a2c565b90355f5260068352815f209060018060a01b03165f52825260ff815f20541690519015158152f35b823461017b575f36600319011261017b57610402610be9565b6005549160ff8316610444577f62e78cea01bee320cd4e420270b5ea74000d11b0c9f74754ebdbfc544b05a25860208360018660ff19161760055551338152a1005b905163d93c066560e01b8152fd5b823461017b5736600319011261017b5761001f61046d610a16565b6024359061047c823383610a42565b610d76565b90503461017b57602036600319011261017b5761049c610a16565b905f80526006602052825f20335f5260205260ff835f205416156104f457506001600160a01b0316806104cb57005b5f8080809347908282156104eb575bf1156104e257005b513d5f823e3d90fd5b506108fc6104da565b60449083519063e2517d3f60e01b825233908201525f6024820152fd5b823461017b57602036600319011261017b576020906001600160a01b03610536610a16565b165f525f8252805f20549051908152f35b823461017b575f36600319011261017b5760209060ff6005541690519015158152f35b3461017b57602036600319011261017b5761001f903533610d76565b823461017b578060031936011261017b5761059f610a16565b90602435917f9f2df0fed2c77648de5860a4cc508cd0818c85b8b8a1ab4ceeef8d981c8956a6805f526006602052825f20335f5260205260ff835f2054161561066a57506001600160a01b0316928315610655576002549083820180921161064257505f927fddf252ad1be2c89b69c2b068fc378daa952ba7f163c4a11628f55a4df523b3ef9260209260025585855284835280852082815401905551908152a3005b601190634e487b7160e01b5f525260245ffd5b5f602492519163ec442f0560e01b8352820152fd5b825163e2517d3f60e01b815233818701526024810191909152604490fd5b823461017b575f36600319011261017b576106a1610be9565b6005549160ff8316156106e1577f5db9ee0a495bf2e6ff9c91a7834c1ba4fdd244a5e8aa4e537bd38aeae4b073aa6020838560ff191660055551338152a1005b9051638dfc202b60e01b8152fd5b823461017b578060031936011261017b57610708610a2c565b90336001600160a01b03831603610724575061001f9135610d02565b5163334bd91960e11b81529050fd5b823461017b575f36600319011261017b576020905160128152f35b823461017b578060031936011261017b5761001f913561077160016101eb610a2c565b610c84565b823461017b57602036600319011261017b57602091355f52600682526001815f2001549051908152f35b823461017b57606036600319011261017b576020906102656107c0610a16565b6107c8610a2c565b604435916107d7833383610a42565b610b0f565b823461017b575f36600319011261017b576020906002549051908152f35b823461017b578060031936011261017b57610813610a16565b60243590331561088c576001600160a01b03169081156108765760209350335f5260018452825f20825f52845280835f205582519081527f8c5be1e5ebec7d5bd14f71427d1e84f3dd0314c0f7b2291e5b200ac8c7c3b925843392a35160018152f35b8251634a1406b160e11b81525f81860152602490fd5b825163e602df0560e01b81525f81860152602490fd5b823461017b575f36600319011261017b578051905f60035460018160011c9060018316928315610973575b60209384841081146103885783885290811561036c575060011461091d57505050829003601f01601f191682019267ffffffffffffffff84118385101761030557508291826103019252826109cf565b60035f908152929350837fc2575a0e9e593c00f959f8c92f12db2869c3395a3b0502d05e2516446f71f85b5b83851061095f57505050508301018480806102cf565b805488860183015293019284908201610949565b91607f16916108cd565b903461017b57602036600319011261017b57359063ffffffff60e01b821680920361017b57602091637965db0b60e01b81149081156109be575b5015158152f35b6301ffc9a760e01b149050836109b7565b602080825282518183018190529093925f5b828110610a0257505060409293505f838284010152601f8019910116010190565b8181018601518482016040015285016109e1565b600435906001600160a01b038216820361017b57565b602435906001600160a01b038216820361017b57565b919060018060a01b0380931692835f526001602052604093845f2091831691825f52602052845f2054925f198403610a7d575b505050505050565b848410610adf57508015610ac8578115610ab1575f526001602052835f20905f5260205203905f20555f8080808080610a75565b8451634a1406b160e11b81525f6004820152602490fd5b845163e602df0560e01b81525f6004820152602490fd5b8551637dc7a0d960e11b81526001600160a01b039190911660048201526024810184905260448101859052606490fd5b916001600160a01b03808416928315610bd15716928315610bb957825f525f60205260405f205490828210610b875750817fddf252ad1be2c89b69c2b068fc378daa952ba7f163c4a11628f55a4df523b3ef92602092855f525f84520360405f2055845f5260405f20818154019055604051908152a3565b60405163391434e360e21b81526001600160a01b03919091166004820152602481019190915260448101829052606490fd5b60405163ec442f0560e01b81525f6004820152602490fd5b604051634b637e8f60e11b81525f6004820152602490fd5b335f9081527fe09f975e15f8f53f24cbbc282b13c40b84df485fcdb8d3997fa103dc5a4ef84160205260409020547f65d7a28e3265b37a6474929f336521b332c1681b933f6cb9f3376673440d862a9060ff1615610c445750565b6044906040519063e2517d3f60e01b82523360048301526024820152fd5b805f52600660205260405f20335f5260205260ff60405f20541615610c445750565b90815f52600660205260405f209060018060a01b031690815f5260205260ff60405f205416155f14610cfc57815f52600660205260405f20815f5260205260405f20600160ff1982541617905533917f2f8788117e7eff1d82e926ec794901d17c78024a50270940304540a733656f0d5f80a4600190565b50505f90565b90815f52600660205260405f209060018060a01b031690815f5260205260ff60405f2054165f14610cfc57815f52600660205260405f20815f5260205260405f2060ff19815416905533917ff6391f5c32d9c69d2a47ea670b442974b53935d1edc7fd64eb21e047a839171b5f80a4600190565b91906001600160a01b038316908115610bd157815f525f60205260405f205493818510610de357506020817fddf252ad1be2c89b69c2b068fc378daa952ba7f163c4a11628f55a4df523b3ef925f95968587528684520360408620558060025403600255604051908152a3565b60405163391434e360e21b81526001600160a01b03919091166004820152602481018590526044810191909152606490fdfea264697066735822122098393a3611bd61bef95260ddcdc7b4537cb80d08be70551c5406471175d282de64736f6c634300081800332f8788117e7eff1d82e926ec794901d17c78024a50270940304540a733656f0d54cdd369e4e8a8515e52ca72ec816c2101831ad1f18bf44102ed171459c9b4f8",
  "linkReferences": {},
  "deployedLinkReferences": {}
}